:020000042400D6
:1000000000000220390A00242D0A0024F98201246C
:100010002D0A00242D0A00242D0A002400000000CF
:100020000000000000000000000000002D0A002475
:100030002D0A0024000000002D0A00247D820124E6
:100040002D0A00242D0A00242D0A00242D0A002444
:100050002D0A00242D0A00242D0A00242D0A002434
:100060002D0A00242D0A00242D0A0024B55701244E
:10007000C1570124B1330124CD570124D95701249C
:10008000A17C0124713D01242D0A00242D0A0024A5
:100090002D0A00242D0A00242D0A00242D0A0024F4
:1000A0002D0A00242D0A00242D0A00242D0A0024E4
:1000B000D53E0224E13E0224ED3E0224A53D01246A
:1000C0002D0A0024B13D01242D0A0024D968012401
:1000D000E5680124D57A0124017B0124357B0124C4
:1000E0002D0A00242D0A0024000000002D0A0024FF
:1000F0002D0A00242D0A00242D0A00242D0A002494
:100100002D0A00242D0A0024F93E0224F16801245E
:10011000697B01249D7B01242D0A00242D0A0024E3
:100120002D0A00242D0A002415690124496901249F
:10013000D57C01242D0A00242D0A00242D0A002438
:1001400000000000000000000000000000000000AF
:100150002D0A00242D0A00242D0A0024D17B01241D
:10016000BD3D01242D0A00248D820124B182012489
:100170002D0A0024D58201242D0A00242D0A0024F2
:100180002D0A00242D0A0024057C0124397C012439
:10019000FD680124096901242D0A00242D0A002488
:1001A0002D0A00242D0A00242D0A00242D0A0024E3
:1001B000A95401242D0A00242D0A00242D0A00240C
:1001C0002D0A00242D0A00242D0A00242D0A0024C3
:1001D0002D0A00242D0A00242D0A00242D0A0024B3
:1001E0002D0A00242D0A00242D0A00242D0A0024A3
:1001F0002D0A00242D0A00242D0A00242D0A002493
:100200002D0A00242D0A00242D0A00242D0A002482
:100210002D0A00242D0A00242D0A00242D0A002472
:100220002D0A00242D0A00242D0A002400000000BD
:100230002D0A00242D0A0024000000002D0A0024AD
:100240002D0A00242D0A00242D0A00242D0A002442
:100250002D0A00242D0A00242D0A00242D0A002432
:100260002D0A00242D0A00242D0A00242D0A002422
:100270002D0A00242D0A00246D7C012400000000BA
:100280002D0A00242D0A00242D0A0024000000005D
:08029000000000002D0A00240B
:1002A00010B5054C237833B9044B13B10448AFF3B0
:1002B00000800123237010BDF8040020000000001E
:1002C000BC3B032408B5034B1BB103490348AFF300
:1002D000008008BD00000000FC040020BC3B03249B
:1002E00010F8012B11F8013B012A28BF9A42F7D0E0
:1002F000D01A7047034613F8012B002AFBD1181AB5
:1003000001387047000000000000000000000000FD
:1003100001F0FF01102A2BDB10F0070F08D010F8B6
:10032000013B013A8B422DD010F0070F42B3F6D1BA
:10033000F0B441EA012141EA014122F007047FF0D3
:1003400000070023F0E80256083C85EA010586EA2A
:10035000010685FA47F5A3FA87F586FA47F6A5FA66
:1003600087F68EB9EED1F0BC01F0FF0102F0070272
:1003700032B110F8013B013A83EA010313B1F8D11D
:100380000020704701387047002D06BF35460338FE
:10039000073815F0010F07D1013015F4807F02BF37
:1003A000013015F4C03F0130F0BC0138704700BF88
:1003B00081F0004102E000BF83F0004330B54FEA16
:1003C00041044FEA430594EA050F08BF90EA020F83
:1003D0001FBF54EA000C55EA020C7FEA645C7FEA16
:1003E000655C00F0E2804FEA5454D4EB5555B8BF39
:1003F0006D420CDD2C4480EA020281EA030382EAAA
:10040000000083EA010180EA020281EA0303362D3B
:1004100088BF30BD11F0004F4FEA01314FF4801C0E
:100420004CEA113102D0404261EB410113F0004F20
:100430004FEA03334CEA133302D0524263EB4303D7
:1004400094EA050F00F0A780A4F10104D5F1200E75
:100450000DDB02FA0EFC22FA05F2801841F10001D0
:1004600003FA0EF2801843FA05F359410EE0A5F1A4
:1004700020050EF1200E012A03FA0EFC28BF4CF0D5
:10048000020C43FA05F3C01851EBE37101F000458B
:1004900007D54FF0000EDCF1000C7EEB00006EEB98
:1004A0000101B1F5801F1BD3B1F5001F0CD3490822
:1004B0005FEA30004FEA3C0C04F101044FEA445279
:1004C00012F5800F80F09A80BCF1004F08BF5FEA00
:1004D000500C50F1000041EB045141EA050130BDE0
:1004E0005FEA4C0C404141EB0101013C28BFB1F5F2
:1004F000801FE9D291F0000F04BF01460020B1FA3D
:1005000081F308BF2033A3F10B03B3F120020CDA0F
:100510000C3208DD02F1140CC2F10C0201FA0CF0ED
:1005200021FA02F10CE002F11402D8BFC2F1200C52
:1005300001FA02F120FA0CFCDCBF41EA0C01904008
:10054000E41AA2BF01EB0451294330BD6FEA040451
:100550001F3C1CDA0C340EDC04F11404C4F120023C
:1005600020FA04F001FA02F340EA030021FA04F34E
:1005700045EA030130BDC4F10C04C4F1200220FAA5
:1005800002F001FA04F340EA0300294630BD21FAE3
:1005900004F0294630BD94F0000F83F4801306BFA9
:1005A00081F480110134013D4EE77FEA645C18BF9D
:1005B0007FEA655C29D094EA050F08BF90EA020F34
:1005C00005D054EA000C04BF1946104630BD91EA2C
:1005D000030F1EBF0021002030BD5FEA545C05D12F
:1005E0004000494128BF41F0004130BD14F580046E
:1005F0003CBF01F5801130BD01F0004545F0FE41E2
:1006000041F470014FF0000030BD7FEA645C1ABF16
:10061000194610467FEA655C1CBF0B46024650EA4D
:10062000013406BF52EA033591EA030F41F4002179
:1006300030BD00BF90F0000F04BF0021704730B5FF
:100640004FF4806404F132044FF000054FF00001D4
:1006500050E700BF90F0000F04BF0021704730B595
:100660004FF4806404F1320410F0004548BF40426A
:100670004FF000013EE700BF42004FEAE2014FEABF
:1006800031014FEA02701FBF12F07F4393F07F4F9A
:1006900081F06051704732F07F4208BF704793F09D
:1006A0007F4F04BF41F40021704730B54FF46074B0
:1006B00001F0004521F000411CE700BF50EA0102B3
:1006C00008BF704730B54FF000050AE050EA01025C
:1006D00008BF704730B511F0004502D5404261EBCC
:1006E00041014FF4806404F132045FEA915C3FF40D
:1006F000D8AE4FF003025FEADC0C18BF03325FEAAA
:10070000DC0C18BF033202EBDC02C2F1200300FA5A
:1007100003FC20FA02F001FA03FE40EA0E0021FA7F
:1007200002F11444BDE600BF53B94AB9002908BF1D
:1007300000281CBF4FF0FF314FF0FF3000F074B9BC
:10074000ADF1080C6DE904CE00F006F8DDF804E028
:10075000DDE9022304B070472DE9F047089D044607
:100760008E46002B4DD18A42944669D9B2FA82F264
:1007700052B101FA02F3C2F1200120FA01F10CFAA0
:1007800002FC41EA030E94404FEA1C48210CBEFBD8
:10079000F8F61FFA8CF708FB16E341EA034306FB61
:1007A00007F199420AD91CEB030306F1FF3080F0F0
:1007B0001F81994240F21C81023E63445B1AA4B23D
:1007C000B3FBF8F008FB103344EA034400FB07F7DF
:1007D000A7420AD91CEB040400F1FF3380F00A8120
:1007E000A74240F207816444023840EA0640E41B15
:1007F00000261DB1D4400023C5E900433146BDE8C1
:10080000F0878B4209D9002D00F0EF800026C5E962
:10081000000130463146BDE8F087B3FA83F6002E7A
:100820004AD18B4202D3824200F2F980841A61EBF2
:10083000030301209E46002DE0D0C5E9004EDDE710
:1008400002B9FFDEB2FA82F2002A40F09280A1EBF8
:100850000C014FEA1C471FFA8CFE0126200CB1FB4D
:10086000F7F307FB131140EA01410EFB03F0884246
:1008700008D91CEB010103F1FF3802D2884200F2D3
:10088000CB804346091AA4B2B1FBF7F007FB101165
:1008900044EA01440EFB00FEA64508D91CEB040403
:1008A00000F1FF3102D2A64500F2BB800846A4EB5E
:1008B0000E0440EA03409CE7C6F12007B34022FA49
:1008C00007FC4CEA030C20FA07F401FA06F31C4378
:1008D000F9404FEA1C4900FA06F3B1FBF9F8200C85
:1008E0001FFA8CFE09FB181140EA014108FB0EF0CB
:1008F000884202FA06F20BD91CEB010108F1FF3A1B
:1009000080F08880884240F28580A8F10208614426
:10091000091AA4B2B1FBF9F009FB101144EA014134
:1009200000FB0EFE8E4508D91CEB010100F1FF34DF
:100930006CD28E456AD90238614440EA0840A0FB77
:100940000294A1EB0E01A142C846A64656D353D04D
:100950005DB1B3EB080261EB0E0101FA07F722FA71
:1009600006F3F1401F43C5E9007100263146BDE89A
:10097000F087C2F12003D8400CFA02FC21FA03F3FD
:10098000914001434FEA1C471FFA8CFEB3FBF7F07E
:1009900007FB10360B0C43EA064300FB0EF69E42A3
:1009A00004FA02F408D91CEB030300F1FF382FD23C
:1009B0009E422DD9023863449B1B89B2B3FBF7F6E4
:1009C00007FB163341EA034106FB0EF38B4208D9BD
:1009D0001CEB010106F1FF3816D28B4214D9023EFE
:1009E0006144C91A46EA004638E72E46284605E71C
:1009F0000646E3E61846F8E64B45A9D2B9EB0208ED
:100A000064EB0C0E0138A3E74646EAE7204694E77C
:100A10004046D1E7D0467BE7023B614432E73046AF
:100A200009E76444023842E7704700BF684620F097
:100A300007018D46FEE700BF0A480B4A904208B501
:100A400003D0121A094925F0BBFC0948094A904213
:100A500003D0121A002125F0DBFC25F06DFC04F018
:100A600075FBFEE700000020F4040020F83B03249F
:100A7000F804002064830120704700BF704700BF66
:100A8000704700BF214B1A68272A01DC28221A6010
:100A90001A68B2F5967F02DD4FF496721A601C4A0E
:100AA0001168002901DC012111601168082901DDAC
:100AB0000821116093ED007AF6EE007ADFED155A09
:100AC000B8EEC77A144B154AD3ED006A85EE876AF3
:100AD00013491448E6EE267AFDEEE77A17EE903ACF
:100AE000012BB8BF0123A2FB03C20360D2080A6036
:100AF0000B68EF2B01DCF0230B600B68B3F57A6F0A
:100B000002DD4FF47A630B60704700BF7000002075
:100B1000500000200000704248000020CDCCCCCC1A
:100B2000040000204C000020704700BF38B52DEDB8
:100B3000028B9FED298AF1EE008A284BB0EE480A1D
:100B40002748D3ED007A274CA7EEA80A264D24F0BB
:100B500001F8264B224893ED000A23F0DFFF9FEDBA
:100B6000240A1F4824F030F8224BB0EE480A2046F1
:100B7000D3ED007AA7EEA80A24F0AAFA1E4B20466D
:100B800093ED000A24F072FA1C4B204693ED000A04
:100B900024F0BCFB20469FED1A0A24F083FB194B7E
:100BA000F0EE007A9FED180A93ED007A2846A7EE42
:100BB000270A24F02FF9154B284693ED000A24F05C
:100BC00015F9134B284693ED000ABDEC028BBDE8E6
:100BD000384024F0F7B800BFCDCCCC3D4000002019
:100BE000ACE808C124BB07C1000000C054000020CD
:100BF000CDCC4C3E440000206000002010000020BE
:100C00000000FA435C000020CDCC4C3D6800002081
:100C10002000002038B5384D0446042128460BF04A
:100C200035F903460521284623600BF02FF90346CA
:100C30000021284663600BF05DF82846012184ED11
:100C4000020A0BF057F82846022184ED030A0BF044
:100C500051F82846032184ED040A0BF04BF8274B8A
:100C600027491B68274AA361274B086811681B683E
:100C7000264AA362264BE06110681B686162E3624A
:100C80002449254A254B2062086811681B68244ABC
:100C9000A363244B20636163106823491B68234AC4
:100CA000E06323640868224B11681B68A164214A31
:100CB00021496064E3641068204B0968204A20657C
:100CC00084ED050A616512681B681E48E3651E49CC
:100CD0001E4B0068A26509681D4A1B686166A36611
:100CE00011681C4B1C4A2066204612681B68E1668E
:100CF0002267636738BD00BF148400201C83002076
:100D00001C050020E08300204C1600205800002025
:100D100014000020780000207C00002084000020C7
:100D200080000020940000203C08002040000020AB
:100D300054000020E4140020440000201000002093
:100D4000600000205C1600205C000020680000208D
:100D500020000020E0820020D4830020F8B5684CF9
:100D60008C46246884421CDD6649674D0C6864210A
:100D700000FB01F166581660621805F58051546851
:100D800001441C6091F864350BB3C0EB001341F2D1
:100D900084517822604605EBC303194425F010FB0B
:100DA000F8BD011B594C604601EB4111146042F241
:100DB0008844554A04EB810402EB810C42F29441D1
:100DC0001444782261441C6025F0FAFAF8BDD2ED93
:100DD0000F4A4FF07C5492ED105AF5EEC04AD2ED16
:100DE000115A92ED126AD2ED136AF1EE10FA92EDF9
:100DF000157AB5EEC05AD2ED167A116DD8BFF6EE5F
:100E0000004AD36DF1EE10FA106EF5EEC05AD2ED35
:100E1000050A92ED061AD8BFB6EE005AD2ED071AAF
:100E2000F1EE10FA92ED082AB5EEC06AD2ED092A69
:100E300092ED0A3AD8BFF6EE005AD2ED0B3AF1EE37
:100E400010FA92ED0C4AF5EEC06AD2F834E0956BD8
:100E5000D8BF9FED2F6AF1EE10FAB5EEC07AD8BF79
:100E6000DFED2C6AF1EE10FAF5EEC07AD8BF9FEDF7
:100E70002A7AF1EE10FAD2E90376D8BFF6EE007ABC
:100E80000022CCED020A8CED031ACCED041A8CED95
:100E9000052ACCED062A8CED073ACCED083A8CED0C
:100EA000094ACCE90076CCF828E0CCF87030CCF8D0
:100EB00074001A4B1A48CCF844101A49CCF82C503C
:100EC000CCF86840CCED0C4A8CED0D5ACCED0E5AA6
:100ED0008CED0F6ACCED106A8CED127ACCED137AA2
:100EE000CCF85020CCF85430CCF85800CCF85C301A
:100EF000CCF86020CCF86410CCF86C30F8BD00BFA2
:100F00001800002074000020381B01203CE102245E
:100F10003D0A573F3333B33ECDCCCC3E9A99993EF0
:100F20009A99193FCDCC4C3E30B5A1B0624C634D7F
:100F300001AB6A4602A9FFF711FF6149614B0868DE
:100F40000421029A186060480AF0DAFF039A05212A
:100F50005D480AF0D5FF9DED040A00215A480AF0C9
:100F6000FFFF9DED050A012157480AF0F9FF9DEDAD
:100F7000060A022154480AF0F3FF9DED070A0321F7
:100F800051480AF0EDFF9DED0A7ADFED507A089A9C
:100F900087FE677A4E4BB5EEC07A09981A604D49C4
:100FA0000B9AF1EE10FA4C4B08604BF67F311A6049
:100FB0000C9BD8BF9FED497A2360494A494B92ED7B
:100FC000006A83ED007AD3ED007ADFED476A67EEC1
:100FD000867A9DED0D7A454AB5EEC07A444867EEB3
:100FE000A67AFDEEE77A17EE903A8B42A8BF0B4641
:100FF000012BB8BF0123F1EE10FA1360D8BFB1EE98
:10100000047A85ED007A94ED000A24F015FA95ED46
:10101000000A374824F006FA94ED007ADFED327AC0
:10102000119CB4EEE77A12983249334AF1EE10FA85
:10103000324BCCBF012500251D700C60304B106079
:101040000D680E9C106843F8085B2E490F9D2E4AD0
:101050000C60186015601099139C2C4A2C4B116081
:1010600014981C602B4B159D18602B4B169A1D6015
:101070002A4B17991A602A4B189C1960294B19980A
:101080001A9A1C602849294B08601A6028491B9C41
:10109000284B1C9A0C6028481A601D9C1E99274BEF
:1010A0001F9A04601960264B1A60FFF73FFD254B1D
:1010B00001221A7021B030BD4C160020140000200F
:1010C0004C1700208C16002014840020000061447E
:1010D0001C8300201C050020E083002000009643B4
:1010E00048000020580000206F12833A640000205E
:1010F000E88200208000002094000020D08300209F
:10110000D4820020780000207C0000208400002091
:101110003C0800204000002054000020E41400207F
:101120004400002060000020100000205C16002019
:101130005C0000206800002020000020D4830020F4
:10114000E0820020D814002010B4104C23682B2B10
:1011500018D80F490F4A51F8231052F823205B1A70
:10116000012AB8BF0122181804D58018FDD4824284
:1011700002DC801A8242FCDD084420605DF8044BEA
:10118000FFF7D2BE5DF8044B704700BF7816002011
:101190009C150020EC1400200E4B1A68002A17DD65
:1011A0000D490E4B10B40C6853F82430013B18184D
:1011B00004D58018FDD4824202DC801A8242FCDD14
:1011C000074B5DF8044B53F820000860FFF7ACBEF6
:1011D000704700BFE814002078160020208300200C
:1011E0009016002070B5134C06460D46D4F8183200
:1011F00004F50670DB689847B04207D8D4F8183277
:1012000004F50670DB689847013886B2D4F81832C6
:1012100009489B68A4F81C629847A84206D8D4F8ED
:10122000183205489B689847013885B2A4F81E52C9
:1012300070BD00BFB4140120CC16012070B51E4E45
:1012400082B0B02400251D488DF80740013429469E
:1012500012F036FC642301220DF107011848E4B2B4
:1012600015F0A0FD294615488DF8075012F028FC0E
:10127000012264230DF10701114815F093FD10239D
:1012800029460E488DF8073012F01AFC642301221B
:101290000DF107010A4815F085FD0121074812F0FC
:1012A0000FFC8022314664230548164415F07AFD70
:1012B000B82CC7D102B070BD00170120EC16012078
:1012C000D41601202DE9F04F171AA3EB0109002FC6
:1012D000B8BF7F42B9F1000FB8BFC9F1000982421F
:1012E0008CBF4FF0010A4FF0FF3A8B42A7EB090485
:1012F00042D87F2A4FF0FF3B11D83F2B0FD8DE0892
:1013000003F0070C02EBC6151F4E2E44012505FA0B
:101310000CF596F84CC245EA0C0586F84C528B4207
:1013200001D1824226D0C9F100084FEAD10C01F068
:10133000070E154D012600EBCC1C7F2806FA0EF691
:101340004FEA440E654407D83F2905D895F84CC2AA
:1013500046EA0C0685F84C62B8EB440F02DAA4EBBF
:1013600009045044774501DD59443C448242DCD1B4
:101370008B42DAD1BDE8F08F3F2B4FF0010BD2D872
:101380007F2ABCD9CFE700BFB41401202DE9F04F6C
:101390008BB006780AAC0190079304E90600002E92
:1013A00000F0C0809DF82130B0469DF82090049355
:1013B0004C46099B0693A8F12005EBB25E2B00F288
:1013C000DE80744ED6F8183206F50670DB68984752
:1013D000B6F81C3223449842C0F2CC80D6F81832BA
:1013E00006F506709B689847B6F81E32049A039378
:1013F00013449842C0F2BE80002A00F0C58002FB70
:1014000005F56FF0004C069BAC441544B6F81CE2A1
:1014100003EB4C0C023B039F03EB4503DDF81C90F0
:10142000CDF8148002933CF8021F002C42D007F044
:101430000703012549F24C223F2F05FA03F54FEA35
:10144000D703724498BF00204FEAC31388BF01201E
:101450006DB2F2461A44504B6FEA05081A44B9F1CE
:10146000000F64D14B460FE0BAF17F0F06D828B9C0
:1014700092F800B045EA0B0B82F800B0013301325C
:101480000AF1010A9C4215D001FA03FB1BF4004F3C
:10149000EAD0BAF17F0FF1D80028EFD192F800B06E
:1014A000013301320AF1010A08EA0B0B9C4202F8EF
:1014B00001BCE9D1029B01376345B4D1DDF814804A
:1014C0000EEB0405D6F818323448ADB2DB68984705
:1014D000854206D3D6F818323048DB689847013881
:1014E00085B2D6F818322D489B68A6F81C5298474A
:1014F000039B834207D3D6F8183228489B68984745
:10150000013883B20393039BA6F81E32019B1B781C
:1015100098453CD1019B13F8018F0193B8F1000F5E
:101520007FF449AF002630460BB0BDE8F08F0023B2
:101530000FE0BAF17F0F06D828B992F800B045EA5B
:101540000B0B82F800B0013301320AF1010A9C4210
:10155000B0D001FA03FB1BF4004FEAD1BAF17F0FC0
:10156000F1D80028EFD192F800B008EA0B0B82F80E
:1015700000B0E8E7019B4FF000081B78C8E746463B
:1015800030460BB0BDE8F08FB6F81CE298E71E4677
:10159000C9E700BFB4140120B4840020CC16012098
:1015A000654A664B2DE9F04FD3F884340025D2F814
:1015B00000B0A3B0624A5B4415602C2B1F46A8BF45
:1015C0002C27AB4240F393805E4B012600936C1CAA
:1015D00003AB02AA04A92846FFF7C0FBA74240F3C9
:1015E000A880CBF1010342F28848574AAA462B440F
:1015F000DDF8089003EB431308EB830303EB0208C9
:1016000006E00399FEF76CFEB8B90134A74271D029
:101610006423A3454D4A454604FB03F34C4803DDD0
:101620001268D118D0584D68494608F18408FEF771
:1016300057FE03462846002BE3D0A4EB0A08009B84
:10164000544555464146C3F800A044DDDFF808E1A3
:10165000AC42DFF808C10EEB85023E480CEB850A70
:1016600000EB850301924AEA0209D4BF002201225D
:1016700043EA0909C9F30209B9F1000F18BF0022B2
:10168000002A40D008F1FF39B9F1090F3BD9AC422B
:10169000D8BF4FF00108019AAAF108094FEA580A89
:1016A000083A03EBCA0AC3E90066083342F8085F48
:1016B00049F8081F53455560C9F80410F3D128F0C4
:1016C0000102424502EB050305D04EF823504CF8C9
:1016D000231040F823601A4BA74225461E6006F1EE
:1016E0000106009B03F1040300933FF770AF23B0A2
:1016F000BDE8F08F5546791B009BAC421D6013DDA1
:10170000A4EB0508A2E7019AAAF10400043BAC4649
:10171000043A0CF1010C42F8045F40F8041F6445E0
:1017200043F8046FF5DCD6E7054B1E6023B0BDE837
:10173000F08F0121E0E700BF18000020383B0120B6
:10174000E814002090160020381B012074000020AF
:101750003CE10224208300209C150020EC14002092
:101760002DE9F04FA2EB000B85B0BBF1000FB8BF25
:10177000CBF1000B7F2A94BF4FF0000E4FF0010E0B
:101780003F2994BF0024012490420294C0F0C681F6
:101790004FF0FF3ABEF1000F02D1002C00F0C781DC
:1017A000904200F0DC81DC460E468046F408BE4FD5
:1017B00006F007054FF0010908EBC414B8F17F0FDC
:1017C00009FA05F53C4407D83F2E05D894F84C9209
:1017D00045EA090584F84C525FEA4C0418BFD0442E
:1017E000A34540F36381013EDC44B142DED1424572
:1017F000DCD100240194A3EB010ABAF1000FB8BFB9
:10180000CAF1000A3F2B94BF002401249942CAF177
:1018100000060394C0F0A6814FF0FF3B1CB9BEF157
:10182000000F00F0A881994200F0BC8137468C4639
:1018300096464FEADC04BEF17F0FDFF86C820CF0B5
:1018400007050EEBC4144FEA47090DD8BCF13F0F52
:10185000444409D84FF0010808FA05F594F84C8281
:1018600045EA080584F84C52B6EB470F03DA0EF14F
:10187000FF3EA7EB0A07B9F1000F00D0DC44A2EB52
:101880000E08B8FA88F84FEA5818634514BF0024C8
:1018900008F00104002C40F03E81B145C9DCA146AE
:1018A0004FEADC04804E0CF007054FF0010A0EEB06
:1018B000C414BEF17F0F0AFA05F5344408D8BCF110
:1018C0003F0F05D894F84CA245EA0A0584F84C521B
:1018D00007B1DC446345E3D1B8F1000FE0D0A0EBE1
:1018E000020C039CBCF1000FB8BFCCF1000C90427D
:1018F0008CBF4FF0010E4FF0FF3E7F2894BF4FF09A
:1019000000084FF0010884B9B8F1000F0DD1DD08CF
:1019100003F0070600EBC514634D25440124B440D1
:1019200095F84C62344385F84C42019C1CBB6746D9
:101930001E469246F4085C4A06F007054FF0010B7C
:101940000AEBC414BAF17F0F0BFA05F5144407D85B
:101950003F2E05D894F84CB245EA0B0584F84C525A
:101960007A0018BFF244944575DD013E6744B342E6
:10197000E0D15045DED1A1EB030C029ABCF1000F7F
:10198000B8BFCCF1000C99428CBF01254FF0FF3558
:10199000CCF1000782B9B8F1000F0DD1CC0801F0ED
:1019A000070600EBC412404C14440122B24094F8E4
:1019B0004C62324384F84C22B9F1000F48D13E46C4
:1019C0000446DA0803F00709DFF8DC804FF0010E67
:1019D00004EBC2127F2C0EFA09FE4FEA460942447C
:1019E00007D83F2B05D892F84C824EEA080E82F8B1
:1019F0004CE2B7EB460F02DA013CA6EB0C06B9F15C
:101A0000000F00D02B44021B9942B2FA82F24FEA37
:101A1000521200D1E2B94F45D3DB9646DA08224F85
:101A200003F0070C012004EBC2123F2B00FA0CF06C
:101A30003A4406D87F2C04D892F84C72384382F886
:101A40004C0206B12B449942E8D1BEF1000FE5D01B
:101A500005B0BDE8F08F9C1B50455246B4FA84F4A3
:101A60004FEA541454D006F0070C01254FEAD60B68
:101A700005FA0CF54FEACB1B6DB23F2E0BEB020CB7
:101A80000AD87F2A08D8DFF820A0D4449CF84CA2BA
:101A900045EA0A0A8CF84CA207B172449042ECD194
:101AA000002CEAD067E700BFB41401208C1B474626
:101AB000B4FA84F46409424514BF002504F001051A
:101AC0000195002D7FF495AE06F007054FF0010952
:101AD0004FEAD60B09FA05F94FEACB1B4FFA89F901
:101AE0007F2F07EB0B050AD83F2E08D8DFF8BC8004
:101AF000454495F84C8249EA080885F84C82BCF1C7
:101B0000000F00D05744BA42EAD1002CE8D072E668
:101B1000002CA8D02FE74FF00009E0E64FF0010AB3
:101B2000BEF1000F7FF43FAE002C7FF43CAECD0839
:101B300001F00706904202EBC5141C4D25444FF0FE
:101B4000010404FA06F495F84C6244EA060485F8A8
:101B50004C424FF00004A64602947FF424AE0124C8
:101B6000019448E64FF0010B002C7FF45FAEBEF10C
:101B7000000F7FF45BAEDD0803F00707994202EB2C
:101B8000C5140A4D25444FF0010404FA07F495F8F2
:101B90004C7244EA070485F84C424FF00004039469
:101BA0007FF444AE4FF0010999E600BFB414012060
:101BB0002DE9F04F89B00D4608AC009004E90C0007
:101BC0009DF81890FEF796FB09FB00F0C0F180032A
:101BD000581CC0F2E580002BB8BF0133C3F34F049B
:101BE000DFF8D0A1ADB2DAF818320AF50670DB687A
:101BF0009847844207D3DAF818320AF50670DB6892
:101C00009847013884B2DAF8183268489B68AAF815
:101C10001C429847854206D3DAF8183263489B681D
:101C20009847013885B29DF81930AAF81E520393DF
:101C3000079B0593009B93F800B0BBF1000F00F0E9
:101C4000A780ABF12004E3B25E2B00F2A180DAF8AA
:101C500018325648DB689847BAF81C324B44984211
:101C6000C0F29980DAF8183250489B689847BAF861
:101C70001E32039A029313449842C0F28C80002AC9
:101C800000F0908002FB04F4BAF81C82B9F1000F56
:101C90004CD06FF00047059BCDF810B0274414449A
:101CA000029E03EB4707023B03EB4403019349F217
:101CB0004C2343449B4606F0070301243C4A3F2E35
:101CC00004FA03F44FEAD60337F802CF98BF002591
:101CD00064B288BF01250BEBC31300206FEA040E2A
:101CE000134442460AE07F2A03D815B919782143E4
:101CF0001970013001330132484511D00CFA00F15E
:101D00000904F0D47F2AF4D8002DF2D119780130DB
:101D1000013301320EEA0101484503F8011CEDD1FF
:101D2000019B0136BB42C6D1DDF810B008EB0904B7
:101D3000DAF818321D48A4B2DB689847844206D30B
:101D4000DAF818321948DB689847013884B2DAF8B3
:101D5000183216489B68AAF81C429847029B834297
:101D600007D3DAF8183211489B689847013883B2D4
:101D70000293029BAAF81E32009B1B789B4507D159
:101D8000009B13F801BF0093BBF1000F7FF459AF24
:101D900009B0BDE8F08F009B4FF0000B1B78EDE71A
:101DA00000241DE7BAF81C82C0E700BFCC16012052
:101DB000B4840020B41401202DE9F04FFF2187B036
:101DC00081468022814824F023FB814B03F180016E
:101DD0001A6842F00F3243F8042B8B42F8D1484680
:101DE000DFF8FC81FEF786FAC0EBC000D8F81832A5
:101DF000D0F18000DB6848BF0130C0F34F0408F524
:101E000006709847844207D3D8F8183208F5067050
:101E1000DB689847013884B2D8F818326D489B685F
:101E2000A8F81C429847012800F2CA80D8F8183256
:101E300068489B689847013882B2674BA8F81E2211
:101E400093F800A05A7899F800B05B680392059364
:101E5000BBF1000F00F0AC805546CDF80090ABF11F
:101E60002004E3B25E2B00F2A380D8F81832594860
:101E7000DB689847B8F81C322B449842C0F29B802C
:101E8000D8F8183253489B689847B8F81E32039A1E
:101E9000029313449842C0F28E80002A00F0928090
:101EA00002FB04F4B8F81CA2002D4FD06FF00049DB
:101EB000059BCDF810B0A1441444DDF808C003EB35
:101EC0004909023B03EB4403019349F24C23534479
:101ED0009B460CF0070301274FEADC02BCF13F0FE1
:101EE00007FA03F73D4B0BEBC21239F8024F7FB2F2
:101EF00098BF00261A4488BF01266FEA070E514694
:101F000000230BE07F2904D81EB910780EEA0000E8
:101F10001070013301320131AB4210D004FA03F0EA
:101F20000004EFD47F29F4D8002EF2D110780133C9
:101F3000013201313843AB4202F8010CEED1019B72
:101F40000CF1010C9945C4D1DDF810B00AEB050481
:101F5000D8F818321F48A4B2DB689847844206D3E9
:101F6000D8F818321B48DB689847013884B2D8F893
:101F7000183218489B68A8F81C429847029B834275
:101F800007D3D8F8183213489B689847013883B2B2
:101F90000293029BA8F81E32009B1B785B4507D179
:101FA000009B13F801BF0093BBF1000F7FF457AF04
:101FB00007B0BDE8F08F009B4FF0000B1B78EDE7FA
:101FC00001223AE7B8F81CA2C0E700BF00170120C1
:101FD00080170120CC16012078040020B484002052
:101FE000B41401202DE9F04F87B09DF844409DF8CE
:101FF00040500394002C45D0824222D394468B4219
:102000001CD37F280C4694BF00220122E5B9E608C4
:1020100004F007084FF0010E194F00EBC6163F2CD5
:1020200074440EFA08FE3E4406D82AB996F84C725B
:1020300027EA0E0E86F84CE2A342E8D2013084452E
:10204000DDD207B0BDE8F08FE60804F007080127ED
:10205000DFF82CE000EBC6163F2C3C4407FA08F7EB
:10206000764406D82AB996F84CE247EA0E0786F875
:102070004C72A342E8D201308445C0D2E1E700BFF0
:10208000B4140120171A002FB8BF7F42824200F219
:10209000A7817F2A94BF4FF0000B4FF0010B3F291F
:1020A00094BF0024012404945BEA0404019440F0EA
:1020B000E0834FF0FF3ECC08002D00F0C08302EB20
:1020C000C414C64E01F0070C824226444FF00104AE
:1020D00004FA0CF496F84CC244EA0C0486F84C421C
:1020E0004FF00004049400F0DA83A346B8460C468F
:1020F0000646B9464FEAD40C7F2EB84F06EBCC1CEF
:102100000DD83F2CBC440AD804F0070A012707FA6F
:102110000AF79CF84CA247EA0A078CF84C725FEA6F
:10212000480718BF7644B94540F39581013CC8443F
:10213000A142DFD1B242DDD1002401945C1A8B426E
:1021400084EAE476A6EBE4763446029600F2228234
:102150003F2BC4F1000494BF002601265BEA060B66
:10216000059640F081834FF0FF37DE08DFF86CC240
:1021700002EBC616002D00F02B83B44403F0070ECB
:1021800001268B4206FA0EF69CF84CE246EA0E0651
:102190008CF84C6200F07F830026A04605968C46A2
:1021A000964600914FEADC0ABEF17F0F4FEA4406E3
:1021B0000EEBCA1A11D8BCF13F0F0ED8DFF81C92F3
:1021C0004FF0010BCA440CF007090BFA09F99AF811
:1021D0004CB249EA0B098AF84C92B8EB440F03DA87
:1021E00002990EF1FF3E641A06B1BC44A2EB0E093F
:1021F000634508BF7245B9FA89F94FEA591900F0E9
:10220000C7814645CEDC00994FEADC06BEF17F0F60
:10221000DFF8C8810CF0070A0EEBC6160DD8BCF12A
:102220003F0F464409D84FF0010808FA0AF896F81B
:102230004CA248EA0A0886F84C8204B1BC446345C3
:10224000E2D1B9F1000FDFD000240394861A002EEA
:10225000B8BF76427F2894BF4FF0000E4FF0010EBA
:10226000824234BF4FF0010C4FF0FF3CBEF1000F33
:1022700040F05182059C002C40F04D82DC08574F05
:1022800000EBC414002D00F0C982274403F00708B6
:10229000012404FA08F497F84C8244EA080487F809
:1022A0004C42019C24BBB0461C46E7087F2ADFF85D
:1022B0002C9102EBC7170ED83F2C4F440BD804F0DB
:1022C000070A4FF0010909FA0AF997F84CA249EAFE
:1022D0000A0987F84C925FEA480718BF6244BE4279
:1022E00040F3F080013CB044A342DED19042DCD107
:1022F000CF1A002FB8BF7F428B4234BF01244FF06A
:10230000FF347E42BEF1000F40F0AE81049A002AF5
:1023100040F0AA81CA08002D00F06C8200EBC212C6
:102320002E4D01F0070C1544012202FA0CF295F82B
:102330004CC242EA0C0285F84C22039A002A7FF430
:1023400080AEB44602468046DD087F2A4FEA4C0044
:1023500002EBC5150FD83F2B0DD8DFF880E003F056
:102360000709AE44012505FA09F59EF84C9245EAA5
:1023700009058EF84C52B6EB4C0F02DA013AACEB81
:10238000070C00B12344A8EB02059942B5FA85F584
:102390004FEA551502D1002D7FF453AE8642D3DBB0
:1023A0002F46D8083F2B0D4D03F0070602EBC01057
:1023B00009D87F2A284406D80125B54090F84C62F8
:1023C000354380F84C52BCF1000F00D023449942B1
:1023D000E7D1002FE5D007B0BDE8F08FB41401209D
:1023E0003F294FF0010E94BF002401247F2A04945A
:1023F00094BF4FF0000B4FF0010B1CB9BBF1000F65
:102400003FF459AE002D7FF471AEB8460C46064637
:10241000B9464FEAD40C7F2E924F06EBCC1C0DD858
:102420003F2CBC440AD8012704F0070A07FA0AFA2D
:102430009CF84C7227EA0A078CF84C725FEA48074E
:1024400018BF7644B9456BDD013CC844A142E0D1D8
:10245000B242DED170E60F1BB7FA87F77F0900970B
:10246000B24214BF002707F001070197002F7FF445
:1024700063AE04F007094FF0010C0CFA09FC4FFAA7
:102480008CFA4FEAD40C4FEACC170297009F0093C6
:10249000029B7F2E06EB030C0AD83F2C08D8DFF8EE
:1024A000C491CC449CF84C924AEA09098CF84C92AD
:1024B000B8F1000F00D07644B242E9D1002FE7D046
:1024C000009B3BE61E1B9042B6FA86F64FEA561674
:1024D00002D1002E7FF40CAF04F007074FF0010A81
:1024E0004FEAD40B0AFA07FA4FEACB1B4FFA8AFAE3
:1024F0007F2A0BEB02070AD83F2C08D8DFF864913B
:102500004F4497F84C924AEA090987F84C92B8F17F
:10251000000F00D062449042EAD1002EE8D0E7E6F6
:102520000F1BB7FA87F77F090097B24214BF002745
:1025300007F001070197002F7FF4FEAD04F00709B3
:102540004FF0010C0CFA09FC6FEA0C0C4FFA8CFAF4
:102550004FEAD40C4FEACC170297009F0093029BDE
:102560007F2E06EB030C0AD83F2C08D8DFF8F49036
:10257000CC449CF84C920AEA09098CF84C92B8F1C8
:10258000000F00D07644B242E9D1002FE7D097E7A0
:1025900000995BE63F2BC6F100044FF0010794BFA2
:1025A000002601260596BBF1000F02D1002E3FF454
:1025B000DCADA046002D7FF4F2AD8C46964600912E
:1025C0004FEADC09BEF17F0F4FEA44060EEBC91952
:1025D00011D8BCF13F0F0ED8DFF888A00CF0070B24
:1025E000D1444FF0010A0AFA0BFB99F84CA22AEAEF
:1025F0000B0A89F84CA2B8EB440F03DA02990EF1EA
:10260000FF3E641A06B1BC44A2EB0E09634508BF45
:102610007245B9FA89F94FEA5919B9D04645CFDC64
:1026200000994FEADC06BEF17F0FDFF838800CF02E
:10263000070A0EEBC6160DD8BCF13F0F464409D869
:102640004FF0010808FA0AFA96F84C8228EA0A08BC
:1026500086F84C8204B1BC446345E2D1B9F1000F65
:10266000DFD0F1E5B4140120039A002A7FF4E9AC2D
:10267000002D7FF466AEB44602468046DD083F2B4F
:102680004FEA4C0002EBC51510D87F2A0ED8DFF8B0
:1026900014E203F0070975444FF0010E0EFA09F930
:1026A00095F84CE22EEA090E85F84CE2B6EB4C0F99
:1026B00002DA013AACEB070C00B12344A8EB0205A7
:1026C0009942B5FA85F54FEA551502D1002D7FF4F0
:1026D000B8AC8642D2DB2F46D8087F2A714D03F072
:1026E000070602EBC0100BD83F2B284408D8012561
:1026F00005FA06F690F84C5225EA060580F84C5289
:10270000BCF1000F00D023449942E5D1002FE3D063
:1027100007B0BDE8F08F019C002C7FF4E9AD002DDF
:102720007FF4C1ADB0461C46E7083F2CDFF874913A
:1027300002EBC7170ED87F2A4F440BD84FF0010980
:1027400004F0070A09FA0AFA97F84C9229EA0A09EA
:1027500087F84C925FEA480718BF6244BE4207DD23
:10276000904204F1FF34B044DED1A342DCD1BFE596
:102770001E1B9042B6FA86F64FEA561602D1002E7C
:102780007FF4B6AD04F007074FF0010A4FEAD40B0F
:102790000AFA07FA4FEACB1B6FEA0A0A4FFA8AFADB
:1027A0007F2A02EB0B070AD83F2C08D8DFF8F490F9
:1027B0004F4497F84C920AEA090987F84C92B8F10D
:1027C000000F00D062449042EAD1002EE8D08FE59D
:1027D000664403F0070E4FF001088B4296F84CC296
:1027E00008FA0EFE2CEA0E0C86F84CC24FD0A0461A
:1027F0000595E2E600EBC2152A4A01F0070C2A44CF
:10280000012505FA0CFC92F84C5225EA0C0582F8D9
:102810004C52039A002A3FF42EAF12E43C4403F0DA
:102820000708012707FA08F894F84C7227EA080706
:1028300084F84C72019C002C3FF474AF58E502EB15
:10284000C416184C4FF001088242344401F00706C8
:1028500008FA06FC94F84C6226EA0C0684F84C62EE
:1028600010D0AB460495D0E58B4208D04FF0FF372F
:102870009FE682423FF462AC4FF0FF3EC2E5CDF8E6
:102880000CB0E3E4AB46CDF80480049556E4CDF8F3
:102890000C800595DAE4002403950594D6E4A3465C
:1028A00001954BE4B41401202DE9F04F04464FF498
:1028B00080620021B3482DED028B99B023F0A8FD72
:1028C0000A21621CB04B12A853F82430CDE9002134
:1028D000AE4A182124F0C6F912A8FFF76DFA092CA8
:1028E00065D8AB4B53F82430002B0E935FDD0F23DC
:1028F0000125DFF8CCB2CDE90853631E0F93002306
:1029000007930F9B082B00F24385DFE813F0630366
:10291000520343031F03FB02DC02CE028F00870336
:10292000049B0CF1010C9E4540F08D82DDF828A03F
:1029300009EB0504DBF818329648A4B2DB68984727
:10294000844206D3DBF818329248DB689847013896
:1029500084B2DBF818328F489B68ABF81C4298476A
:10296000059B834207D3DBF818328A489B68984757
:10297000013883B20593059BABF81E32039B1B788D
:102980009A4507D1039B13F801AF0393BAF1000FE7
:1029900040F01E82079B0C9A01330793099B0C336E
:1029A0000993089B013308930E9B9342A9DC754E53
:1029B000B024002578488DF847400134294611F0AD
:1029C0007FF8642301220DF147017448E4B214F04A
:1029D000E9F9294670488DF8475011F071F8012245
:1029E00064230DF147016D4814F0DCF910232946EA
:1029F00069488DF8473011F063F8642301220DF126
:102A00004701664814F0CEF90121634811F058F8E7
:102A10008022314664236148164414F0C3F9B82C6F
:102A2000C7D119B0BDEC028BBDE8F08FF7EE006A9C
:102A30009FED5B6AF6EE008A9FED5A7A9FED5A8A07
:102A40005A4BD3ED007A5A4AC7FE867AC7FEE67A19
:102A5000E7EE878A089B67EE887A0C93BDEEE78ADB
:102A6000FDEEE88A1821009212A8524A24F0FAF8E2
:102A7000DBF81832BDF824204648DB680A929847F4
:102A8000042800F2E982DBF818324248DB689847F4
:102A9000013883B2ABF81C32DBF818323D489B6832
:102AA00098470A9B984206D8DBF8183239489B6849
:102AB0009847013883B2ABF81E323F4B9DF84890DF
:102AC0005A7893F800A05B6806920D93B9F1000F55
:102AD00000F0CE8012AB5546CA460393AAF12004FB
:102AE000E3B25E2B00F2C480DBF818322948DB68C1
:102AF0009847BBF81C322B449842C0F2A082DBF806
:102B0000183224489B689847BBF81E32069A0593F2
:102B100013449842C0F29382002A00F04D8302FBD6
:102B200004F4BBF81C92002D70D06FF0004E0D9B8A
:102B3000CDF82CA0A6441444DDF814C003EB4E0ECF
:102B4000023B03EB4403049349F24C234B449A4663
:102B50000CF0070301264FEADC02BCF13F0F06FA36
:102B600003F6164B0AEBC2123EF8024F76B298BF3C
:102B700000271A4488BF01276FEA06084946002348
:102B80002BE000BF00170120F0E202244CE10224F8
:102B9000A4E20224CC160120EC160120D416012058
:102BA000000000000000C84200001842D48300204A
:102BB00044E1022458E1022478040020B484002077
:102BC000B41401207F2903D817B91078304310704E
:102BD000013301320131AB4211D004FA03F0000499
:102BE000F0D47F29F4D8002FF2D1107801330132CC
:102BF000013108EA0000AB4202F8010CEDD1049B60
:102C00000CF1010C7345A3D1DDF82CA009EB0504F0
:102C1000DBF81832B348A4B2DB689847844206D385
:102C2000DBF81832AF48DB689847013884B2DBF82C
:102C30001832AC489B68ABF81C429847059B83420E
:102C400007D3DBF81832A7489B689847013883B24E
:102C50000593059BABF81E32039B1B789A4507D161
:102C6000039B13F801AF0393BAF1000F7FF436AF63
:102C7000099A012549F282209B49D70802F10803ED
:102C800002F00702FF01954007F15E0238446DB281
:102C90005A44084492F84C12294382F84C123622C6
:102CA0000178013229435E2A00F8011BF8D14FEA6E
:102CB000D30E07994FEACE1E01EB410609990EF19A
:102CC0005E00B600584406F1170C90F84C422C43B5
:102CD00080F84C42CC0801F0070801203F290BEB9B
:102CE000C414014400FA08F005D894F8AA8240EA16
:102CF000080084F8AA026145ECD10EF1360049F2D1
:102D0000AA21794C58447144214490F84C422C43F8
:102D100080F84C420878013A2843362A01F8010924
:102D2000F8D107F136020F365A4492F84C120D438F
:102D300082F84C52D90803F0070001223F2B0BEB1D
:102D4000C11103F1FF3302FA00F204D891F88202B4
:102D5000024381F88222B342ECD118EE103A002BE4
:102D600000F37C8118EE903A604A182112A823F0F3
:102D700079FFDBF818325B48DB689847622840F23D
:102D800063816223ABF81C32DBF8183255489B682C
:102D900098470A9B984207D8DBF8183251489B683D
:102DA0009847013883B20A93514B0A9A93F800A0CE
:102DB000ABF81E229DF848905A785B6806920B93F8
:102DC000B9F1000F3FF4E6AD12AB5546CA46039386
:102DD000AAF12004E3B25E2B3FF6DCADDBF818323B
:102DE0004048DB689847BBF81C322B449842C0F23D
:102DF0002181DBF818323B489B689847BBF81E32AC
:102E0000069A059313449842C0F21481002A00F0F8
:102E1000D68102FB04F4BBF81C92002D3FF488AD70
:102E20006FF0004E0B9BCDF828A0A6441444DDF8AB
:102E300014C003EB4E0E023B03EB4403049349F230
:102E40004C234B449A460CF0070301264FEADC0260
:102E5000BCF13F0F06FA03F6234B0AEBC2123EF811
:102E6000024F76B298BF00271A4488BF01276FEA45
:102E70000608494600230BE07F2903D817B91078CC
:102E8000304310700133013201319D423FF448ADAF
:102E900004FA03F00004EFD47F29F3D8002FF1D116
:102EA000107808EA00001070ECE7079B002B00F098
:102EB0002E82012B00F06882022B0CBF0D4B0E4BB3
:102EC000D3ED007A26E2079B002B00F0FF81012B57
:102ED00000F03E82022B0CBF084B094BD3ED007A69
:102EE000F7E100BFCC160120B484002034E20224B4
:102EF00078040020680000202000002060000020EE
:102F000010000020079B002B40F0D981C14BD3ED6E
:102F1000007AF7EE006A9FEDC06AF6EE008A9FED38
:102F2000BF7AC7FE867A9FEDBE8AC7FEE67ABD4BA2
:102F3000E7EE878A079A67EE887A53F82220089B83
:102F4000BDEEE78A0C93FDEEE88A8BE5079B002B2C
:102F500040F0A981B44BD3ED007AF7EE006A9FED03
:102F6000AE6AF6EE008A9FEDAD7AC7FE867A9FEDD7
:102F7000AC8AC7FEE67AAD4BE7EE878A079A67EE22
:102F8000887A53F82220089BBDEEE78A0C93FDEE69
:102F9000E88A67E5079B002B00F06481012B00F0B5
:102FA000E781A34B9FEDA37AD3ED007A67EE877A92
:102FB0005BE1079B002B00F00D81012B00F0CC8121
:102FC0009D4B9FED9E7AD3ED007A77EEC77A77EE30
:102FD000A77A02E1079B002B40F0F580984BD3EDD8
:102FE000007AF7EE006A9FED8C6AF6EE008A9FED9C
:102FF0008B7AC7FE867A9FED8A8AC7FEE67A914B66
:10300000E7EE878A079A67EE887A53F82220089BB2
:10301000BDEEE78A0C93FDEEE88A23E5F7EE006A41
:103020009FED7D6AF6EE008A9FED7C7A9FED7C8AAB
:10303000854B06E5039B4FF0000A1B78A0E4039B39
:103040004FF0000A1B7809E6DBF818327F48DB688E
:103050009847013883B295E604231BE5099A501C72
:10306000971D02F1070C951CD41C111D531D00F077
:103070000706012202FA06F676B2059605F0070663
:10308000ED0802FA06F64FEAC51E75B2049504F083
:103090000705E40802FA05F5E6016CB2069401F0B2
:1030A0000704C90802FA04F4CD0103F00701DB08A4
:1030B00002FA01F14FFA84F9DC014FFA81F807F0C6
:1030C0000701FB0818EE107A02FA01F1DB014FFA52
:1030D00081FA0CF007010D9363468A40C1088342D0
:1030E00007F1370C52B24FEAC1110B924FEAD302EB
:1030F0004FEAC2120392FFF435AE49F283220D9BD0
:10310000134411440EEB020716441846039B154462
:10311000144413441A464E4B1A4419441F441E4487
:103120001D441C441844372303927F2B03F10103F1
:103130002FD891F800E0059A42EA0E0E049A81F821
:1031400000E097F800E042EA0E0E069A87F800E0E9
:1031500096F800E042EA0E0E039A86F800E095F831
:1031600000E049EA0E0E85F800E094F800E048EA35
:103170000E0E84F800E090F800E04AEA0E0E80F8A7
:1031800000E092F800E00B9A42EA0E0E039A82F8F1
:1031900000E0039A9C4501F1010107F1010702F1EA
:1031A000010206F1010605F1010504F1010400F137
:1031B00001000392B9D2D5E5BBF81C9226E5BBF815
:1031C0001C92FFF7B5BB012B0CBF224B224BD3ED5A
:1031D000007A06E7214BD3ED007AF7EE006A9FED07
:1031E0000E6AF6EE008A9FED0D7AC7FE867A9FED95
:1031F0000C8AC7FEE67A1A4BE7EE878A079A67EED3
:10320000887A53F82220089BBDEEE78A0C93FDEEE6
:10321000E88A27E43C080020000000000000C842C3
:1032200000001842C0EC02244C160020F4EC0224EA
:10323000E0830020E4388E3F94000020CDCCCC3DCC
:1032400078000020ACEC0224E0820020CC160120A3
:10325000B48400207C000020840000201C83002017
:10326000E8EC02245F4BD3ED007AF7EE006A9FEDA5
:103270005E6AF6EE008A9FED5D7AC7FE867A9FED64
:103280005C8AC7FEE67A5B4BE7EE878A079A67EEB1
:10329000887A53F82220089BBDEEE78A0C93FDEE56
:1032A000E88AFFF7DFBB544BF7EE006A9FED537AD5
:1032B000D3ED007A77EEE67A67EE877A4DE6012B5A
:1032C0000CBF4F4B4F4BD3ED007A22E64E4BD3ED64
:1032D000007AF7EE006A9FED446AF6EE008A9FEDF1
:1032E000437AC7FE867A9FED428AC7FEE67A474B4D
:1032F000E7EE878A079A67EE887A53F82220089BC0
:10330000BDEEE78A0C93FDEEE88AFFF7ABBB404BBE
:10331000D3ED007AF7EE006A9FED336AF6EE008A8D
:103320009FED327AC7FE867A9FED318AC7FEE67A34
:10333000384BE7EE878A079A67EE887A53F822209F
:10334000089BBDEEE78A0C93FDEEE88AFFF78ABB87
:10335000314BD3ED007ABCE7304BDFED316AD3ED72
:10336000007A9FED307A77EEE67A67EE877A34E777
:103370002D4BF3EE046A9FED2D7AD3ED007A77EEB4
:10338000E67A67EE877A70E7294BD3ED007AC1E7DA
:10339000079B0BBB1946274808F0ACFCF7EE006A08
:1033A000DFED117AF6EE008A9FED107AC0FE277AE3
:1033B0009FED0F8AC7FEE67A1F4BE7EE878A079AD2
:1033C00067EE887A53F82220089BBDEEE78A0C93BB
:1033D000FDEEE88AFFF746BB0321164808F08AFC99
:1033E000DCE700BF1C050020000000000000C84210
:1033F00000001842CCEC022414000020398EE33D7A
:103400004000002054000020E4140020D8EC0224E6
:103410005C160020D8EC022444000020800000202C
:103420009A99193F421A24405800002009F2943A10
:103430005C00002014840020B8EC02242DE9F04F39
:103440004FF48062B5B00021464822F0E1FF8022AF
:10345000FF21444822F0DCFF434800F1800203686A
:1034600043F0033340F8043B9042F8D1A0F5537980
:10347000A0F59A74D9F818322046DB6898470228DC
:1034800001F2C780D9F818322046DB689847013826
:1034900083B2D9F81822A9F81C32344893689847A7
:1034A000012801F2B380D9F8183230489B68984758
:1034B000013883B2A9F81E324C242D4B93F80080BA
:1034C0005A785B684546049205932A4B0293D9F8D3
:1034D00018322648DB689847B9F81C322B449842CA
:1034E000C0F29E80D9F8183220489B689847B9F8F6
:1034F0001E12049A03918B189842C0F29180002A00
:1035000001F0ED83A4F12003B9F81CA202FB03F340
:10351000002D55D06FF0004849F24C2B8C46984452
:103520001344059AD34402EB4808023A02EB4303E2
:1035300001930CF0070301274FEADC02BCF13F0FB7
:1035400007FA03F70C4B0BEBC21238F8024F7FB2AD
:1035500098BF00261A4488BF01266FEA070E51461D
:10356000002317E00017012080170120CC1601204E
:103570007004002060E10224B48400207F2904D874
:103580001EB910780EEA00001070013301320131CB
:103590009D4210D004FA03F00004EFD47F29F4D840
:1035A000002EF2D1107801330132013138439D42AF
:1035B00002F8010CEED1019B0CF1010C4345B8D18E
:1035C0000AEB0504D9F81832BD48A4B2DB68984765
:1035D000844206D3D9F81832B948DB6898470138D5
:1035E00084B2D9F81832B6489B68A9F81C429847AB
:1035F000039B834207D3D9F81832B1489B68984798
:10360000013883B20393029B13F8014F0293039B8B
:10361000A9F81E3224B1A4F120035E2B7FF657AF28
:10362000A84B1A68002A41F36F81A74A1668D3F89D
:103630000080012EB8BF0126082EA8BF0826A6EBE1
:103640000808B8F1000F40F34887B0454FF0280351
:103650004FF000019D4DA8BFB04601965C1CDA1DDD
:10366000181D94428CBF01220722571E022F41F2DF
:103670004881EC58043A04F00334571EEC50944C43
:103680002646E45804F0FE34F45009EB000B00F138
:10369000800E00F1810C00F182049BF84CA2CE4414
:1036A000CC444C440AF0030A8BF84CA29EF84CA27E
:1036B0002AF0010A8EF84CA200F1020E0130E7B1A7
:1036C000484409EB0E07022A90F84CE20EF0030E74
:1036D00080F84CE29CF84C0220F001008CF84C027F
:1036E0000BD097F84C0294F84C2200F0030022F023
:1036F000010287F84C0284F84C220131093341451C
:10370000ACDB019E8E4256DD01EBC10449F2FA2387
:10371000704AA846234404F128072E341344BC42BF
:1037200000F21D8613F8802C22F0040203F8802C8E
:1037300001F00E833A467F2A05D812F8080020F0DF
:10374000040002F80800013A9442F4D100201A78EB
:10375000BC4222F001021A7013F8802C02F003021E
:1037600003F8802C13F8062C22F0010203F8062C33
:10377000C0F0988658B922467F2A05D85448054695
:10378000105C20F001005055013A9742F4D113F932
:10379000862C013113F8060C093702F003028E4221
:1037A00020F0010004F1090403F8862C03F1090359
:1037B00003F80F0CB3DC2EAB0E93474B1993474B1A
:1037C0001B78002B00F02887454B1821454A24938D
:1037D0000E981B6823F046FA0E98FCF78BFDD9F87B
:1037E0001832A0EB8000DB684400354898477F34EE
:1037F000A4B2844206D3D9F818323148DB6898471E
:10380000013884B2D9F818322D489B68A9F81C42B7
:103810009847012800F20A87D9F8183228489B688F
:103820009847013883B2A9F81E322F4B9DF8B88013
:103830005A7893F800A05B6804920693B8F1000FE1
:1038400000F0C3800E9B55460193A8F12004E3B21B
:103850005E2B00F2BA80D9F818321948DB68984715
:10386000B9F81C322B449842C0F24884D9F8183277
:1038700013489B689847B9F81E32049A039313447F
:103880009842C0F23B84002A01F02D8202FB04F42E
:10389000B9F81CB2002D66D06FF0004A069BCDF837
:1038A0001480A2441444DDF80CC003EB4A0A023B26
:1038B00003EB4403029349F24C235B44984615E022
:1038C000CC160120741600205000002000170120A3
:1038D00080170120B484002060160020E4820020BC
:1038E0007000002090E10224700400200CF0070317
:1038F00001274FEADC02BCF13F0F07FA03F7984BB0
:1039000008EBC2123AF8024F7FB298BF00261A4461
:1039100088BF01266FEA070E594600230BE07F2976
:1039200004D81EB910780EEA00001070013301327D
:103930000131AB4210D004FA03F00004EFD47F2928
:10394000F4D8002EF2D1107801330132013138431E
:10395000AB4202F8010CEED1029B0CF1010C534575
:10396000C4D1DDF814800BEB0504D9F818327D487A
:10397000A4B2DB689847844206D3D9F81832794854
:10398000DB689847013884B2D9F8183275489B68CB
:10399000A9F81C429847039B834207D3D9F81832F1
:1039A00070489B689847013883B20393039BA9F83A
:1039B0001E32019B1B78984507D1019B13F8018F9C
:1039C0000193B8F1000F7FF440AF14F005FD664B92
:1039D000A3FB0023C3F3C0132393022311931A23E1
:1039E000079300231A460393604B9B5CDAB2062BC5
:1039F000059200F2AC845E4B53F822300693199B7B
:103A0000039A1B689342029300F03A8615460123FD
:103A1000033207999340CC1FA1F10F005BB20494CD
:103A20000D900A93E308DB011793C308DB011093A1
:103A30006B1C1293CB081893129B18214D4A0E98B9
:103A400023F010F9BDF81C20D9F818324548A2F12E
:103A50000C04DB681392A4B29847012800F2748426
:103A6000D9F818323F48DB689847013883B2A9F883
:103A70001C32D9F818323B489B689847844206D3D9
:103A8000D9F8183237489B689847013884B23A4BC6
:103A90009DF8B8705A7893F800805B68A9F81E42C8
:103AA0000B920F93002F00F0C4800E9B44460193AD
:103AB000A7F12005EBB25E2B00F2BB80D9F81832DB
:103AC0002848DB689847B9F81C3223449842C0F272
:103AD0001183D9F8183223489B689847B9F81E32E9
:103AE0000B9A099303EB02084045C0F20383002AB6
:103AF00000F0CF846FF0004C0F9B099802FB05C5C6
:103B0000DDF80CE00C9703EB450CB9F81C32089378
:103B10003CF8025F002C57D03F2800F00703029AC0
:103B20004FF00101089E98BF4FF0000B01FA03F11E
:103B300088BF4FF0010BC308724549F24C2249B2CD
:103B40004FEAC313B24632446FEA01075E461A4495
:103B5000034B1A444FF0000340F0BB821EE000BF4D
:103B6000B4840020CC16012091739F5DE0140020E6
:103B700090EC022494E1022478040020BAF17F0F33
:103B800006D82EB992F800B041EA0B0B82F800B0CB
:103B900001330AF1010A01329C4215D005FA03FBF8
:103BA0001BF4004FEAD0BAF17F0FF1D8002EEFD10D
:103BB00092F800B001330AF1010A013207EA0B0B57
:103BC0009C4202F801BCE9D101304045A0D10C9FD4
:103BD000089DD9F8183225446F48DB68ADB2984784
:103BE000854206D3D9F818326B48DB68984701380C
:103BF00085B2D9F8183268489B68A9F81C529847D2
:103C0000099B834207D3D9F8183263489B689847C9
:103C1000013883B20993099BA9F81E32019B1B78D6
:103C2000BB4206D1019B13F8017F0193002F7FF463
:103C30003FAF059B012B40F06D82584B1B68002B5A
:103C400040F02C84564B574A1978574B002908BF2F
:103C50001A460692239B002B40F05C82534BD3F80C
:103C600000A04E4A1368002B40F3B6844B4BD2F8A9
:103C700000801B68002B40F3C5844D4B93ED007A08
:103C8000464BB8EEC77AD3ED007AF8EEE77A87EEC6
:103C9000276AB8F13F0F40F32484B8F5806FC0F273
:103CA000C8844FEAA8230693424B4FEAE87083FB8F
:103CB00008234FEAA81243440892C0EB63100AEBB2
:103CC0000803534541F35F803B4A924581F25B8094
:103CD000012800F0128403990AEB4A0200EB400429
:103CE0009FED367A0A443649A40001EB8201524620
:103CF00001E09A420ADAD1ED007A02442E4D2144C5
:103D0000F0EEE77AAA4287FE277AF2DBF1EE0C7A30
:103D1000DFED2C6A87FE267AC7EE876A49F27823A0
:103D2000179A4FF02C0C1A441346274AD3180293C3
:103D3000069B03EB43039B000993ACF12C0307EEB6
:103D4000903A059B012BFAEECD7A00F0108407EE35
:103D5000108AB8EEC77A67EE277AFDEEE77A17EE9B
:103D6000902A424502EB0A0380F23084124A9342C1
:103D700080F22C84069A012A40F00584039903EB13
:103D800043029FED127A0A440D4901EB8202089921
:103D90004C1E1C4422E000BFCC16012008840020E9
:103DA000681600206CE1022470E10224DC1400207B
:103DB0000C8400208988888800F91500A69B443B64
:103DC000240F00C00AD7A33DB484002000000000E7
:103DD000A3EB0A0080450EDD8B420CDAD2ED007AAF
:103DE000A342C94902F10C02F0EEE77A03F10103A4
:103DF00087FE277AECD126EE877AFDEEC77A17EE9A
:103E0000903A072B40F3AB830E23079C6FF00D070E
:103E100001930723049AD31AA34280F08A83E2080D
:103E2000012504F007010CEBC21205FA01F14A4426
:103E300092F84C02014382F84C12BE4662467E0064
:103E40007F2A10D83F2B0ED8D90803F0070B01208A
:103E500002EBC11100FA0BF0494491F84CB240EA70
:103E60000B0081F84C02B7422B440FDA01999C42B7
:103E700002F1FF32AEEB010E01D1624528D07F2A5C
:103E80004FEA4E06DED9B7422B44EFDBA2EB0C0122
:103E90009C42B1FA81F14FEA511100D1C1B9B74248
:103EA000CEDBD80803F0070701267F2A02EBC010FB
:103EB00006FA07F607D83F2B484404D890F84C720E
:103EC0003E4380F84C622B449C42EAD10029E8D062
:103ED000029B0CF1010C0133BCF16C0F02937FF4D7
:103EE0002CAF039AF7EE006A884BB2EE0C7A109C66
:103EF00003EB82030A9D04F1780604F17902D3ED05
:103F0000007A04F17E0309EB06004A444B449FED1E
:103F1000806A93F84C12C7FE867AC7FEE67A67EE8F
:103F2000877A294383F84C1204F17A0390F84C12F3
:103F3000FDEEE77A4B44294317EE90EA80F84C12E5
:103F400092F84C12294382F84C1204F17B0193F849
:103F50004C2249442A4383F84C2204F17C0291F814
:103F60004C0204F17D034A4428434B4481F84C023F
:103F700092F84C12294382F84C1293F84C222A43AF
:103F800083F84C220D9B079A934280F0C581189BC1
:103F90000124D801119B00F17E0704FA03F509EB17
:103FA00007026DB292F84C322B4382F84C320D9BD3
:103FB000DDF81C80D90803F0070C01223F2B09EB28
:103FC000C111234402FA0CF205D891F8CAC242EAA0
:103FD0000C0281F8CA224345ECD1002400F178029A
:103FE0004F4400F17D034E444A444B4492F84C1236
:103FF000294382F84C1297F84C222A4387F84C2226
:1040000000F17C0293F84C124A44294383F84C1285
:1040100000F17B0192F84C3249442B4382F84C3238
:1040200000F17A0200F1790391F84C024A442843E6
:104030004B4481F84C0292F84C12294382F84C12FE
:1040400093F84C2215430A9A83F84C5296F84C3256
:104050001A430D9B86F84C22079A93428CBF01218C
:104060004FF0FF319CB913460D9DD80803F00704AB
:1040700001223F2B09EBC0100B4402FA04F204D8D2
:1040800090F8C442224380F8C4229D42EDD1BEF193
:10409000000F00F39081079B11330793119B0133AD
:1040A0001193129B032B00F0AF811A4603939BE4FC
:1040B000BAF17F0F06D82EB992F800B007EA0B0BC1
:1040C00082F800B001330AF1010A01329C423FF448
:1040D0007BAD05FA03FB1BF4004FE9D0BAF17F0F6B
:1040E000F0D8002EEED192F800B041EA0B0B82F826
:1040F00000B0E7E7019B00271B7891E5019B4FF09B
:1041000000081B7857E400BF00F915008800002064
:1041100000000000139BB748A3F10B04D9F8183234
:10412000DB68A4B29847112800F21781D9F8183239
:10413000B048DB689847013883B2A9F81C32D9F837
:104140001832AC489B689847844206D3D9F8183295
:10415000A8489B689847013884B2069BA9F81E427C
:1041600093F800A0A44B5A7893F800B05B680892CB
:104170000B93BAF1000F00F0AB805D46D346ABF174
:104180002004E3B25E2B00F2A380D9F818329948DC
:10419000DB689847B9F81C322B449842C0F2B780CC
:1041A000D9F8183293489B689847B9F81E32089A94
:1041B000029313449842C0F2AA80002A00F08A8138
:1041C00002FB04F4B9F81CA2002D4FD06FF0004E92
:1041D0000B9BCDF824B0A6441444DDF808C003EBD3
:1041E0004E0E023B03EB4403019349F24C2353442C
:1041F0009B460CF0070301264FEADC02BCF13F0F9F
:1042000006FA03F67D4B0BEBC2123EF8024F76B274
:1042100098BF00271A4488BF01276FEA0608514655
:1042200000230AE07F2903D817B9107830431070B3
:10423000013301320131AB4211D004FA03F0000422
:10424000F0D47F29F4D8002FF2D110780133013255
:10425000013108EA0000AB4202F8010CEDD1019BEC
:104260000CF1010C7345C4D1DDF824B00AEB050450
:10427000D9F818325F48A4B2DB689847844206D365
:10428000D9F818325B48DB689847013884B2D9F80E
:10429000183258489B68A9F81C429847029B8342F1
:1042A00007D3D9F8183253489B689847013883B22E
:1042B0000293029BA9F81E32069B1B785B4507D12F
:1042C000069B13F801BF0693BBF1000F7FF457AFB5
:1042D0004B4BD3F800A0059B002B7FF4C2AC179981
:1042E00049F278220A9801F16B030A4443494B448E
:1042F0000A4493F84C12014383F84C122C21137892
:10430000013103436B2902F8013BF8D1E9E5069B33
:104310004FF0000B1B78D1E7189B4FF001044FEAD8
:10432000C310119B00F17E0704FA03F509EB0702A5
:104330006DB292F84C3243EA050382F84C323FF4F6
:104340004DAE4FF0FF3432E60123FFF790BB2D4B0B
:10435000069300230593FFF752BB1123EDE613F8F4
:10436000802C22F0040203F8802C13F8862C22F013
:10437000040203F8862C13F8852C22F0040203F8BB
:10438000852C13F8842C22F0040203F8842C13F8F3
:10439000832C22F0040203F8832C13F8822C22F0E1
:1043A000040203F8822C13F8812C22F0040203F893
:1043B000812CFFF7CBB9079EA6EB0E04731E9C421F
:1043C0003FF669AE79202146CB0801F007050122AE
:1043D000013100EBC313AA40B1424B4493F84C5255
:1043E00042EA050283F84C22EED101307E28EAD160
:1043F00051E600BFCC16012070040020B4840020D8
:10440000DC14002068E102248C4B1B68002B00F3B5
:1044100032848B4C2368002B80F29A832AAE894F1A
:10442000B024002588488DF8A840013429460FF0B3
:1044300047FB6423012231468448E4B212F0B2FC07
:10444000294681488DF8A8500FF03AFB01226423D9
:1044500031467E4812F0A6FC102329467A488DF892
:10446000A8300FF02DFB642301223146774812F06B
:1044700099FC012174480FF023FB80223946642304
:104480007248174412F08EFCB82CCAD135B0BDE882
:10449000F08FB9F81C320893FFF79ABB6C4B069368
:1044A000FFF7D8BB00287FF472A96A4AA3F1060E71
:1044B000DFF8C8C1ACEB020C1A460CEB02007F28F7
:1044C00003D8107820F00100107001329645F4D125
:1044D000FFF75DB9B9F81CA2C8E60021594DFFF7F6
:1044E00013B90AEB08039A4580F251845A4A92455F
:1044F00080F24D8401220692089203990AEB4A0247
:104500009FED567A0A44564901EB8201524602E079
:1045100093427FF7FBAB084601320C31D0ED007AB5
:104520004D48F0EEE77A824287FE277AF0DBFFF70C
:10453000EDBB4FEAD4024FF0010004F007010CEB91
:10454000C21200FA01F14A4492F84C0241EA000119
:1045500082F84C123FF4BCAC4FF0FF356DE4002BF9
:1045600034DD5A00049957425C18019252E4F4EE8B
:10457000467A324B1B68F1EE10FA7FF7E8AB002B5E
:104580007FF7E5ABADE41746039903EB43029FEDDC
:10459000357AFD1A0A443249DDE9086E01EB8202E0
:1045A00005E080457FF727ACA342BFF624ACD2EDEF
:1045B000007AE9183B44284CF0EEE77A8E427244C8
:1045C000A3EB0A0087FE277AEBDC14E4029A0A992F
:1045D00013780B4313707BE4234B1B78002B3FF4C1
:1045E0007EAE224BD3F800A0214B1B68A3EB0A0838
:1045F000124BB8F1010F1B68B8BF4FF00108002B38
:104600003FF73BABB7EE006AFFF743BB0123FEF772
:1046100051BF0223FEF73DBF164B1821164A2493C3
:104620000E981B6822F01EFBFFF7D6B80123FFF798
:10463000FAB801230693FFF737BB00BF08840020B8
:104640006C00002000170120EC160120D416012078
:104650006CE10224B484002000F91500A69B443BC1
:10466000240F00C000000000681600203008002061
:104670000C8400207000002034E20224346DFFFF1F
:10468000079B49F24C25A3F10E07A3F10A0CA3F1F5
:10469000090EA3F10808A3F1060AA3F1020BDA1F21
:1046A000FF084FEADC0CA3F10C004FEADE0E049287
:1046B0004FEAD808A24A4FEADA0AA3F10B044FEAFC
:1046C000DB0BA3F10D0105EBC717A3F10F0605EBFB
:1046D000CC1C05EBCE1EBB1805EBC818944405EBAB
:1046E000CA1A964405EBCB1B9044924425939344FD
:1046F000049A01230D96D208F6080B92039A03320E
:1047000003FA02F257B2039A04320A9703FA02F24A
:1047100057B20A4601F00701D208149703FA01F1D3
:1047200005EBC21249B21D9185490F461144C208DA
:10473000099100F0070105EBC212384603FA01F1B6
:1047400049B21A91B918E208089104F0070105EB83
:10475000C212079C03FA01F149B21C91B918039ADD
:104760000191D118621F129102F00701D20803FAD9
:1047700001F105EBC21249B21044221F209102F050
:104780000701D20803FA01F105EBC21249B21E91EA
:1047900039461144E21E02F00704D20803FA04F479
:1047A00005EBC21267B2664C2244079C2197013C7C
:1047B000E408E4011694039C03FA04F467B2129C23
:1047C0000F9703FA04F4119FBB4067B2079C5BB2DA
:1047D0000C971393E308189305EBC6130B9C0B92ED
:1047E000E70105EBC415564C179723442544554C57
:1047F00004EBC617039C1B97F701189E04EB0414E7
:104800001097F601259F159604F10B061A341F9692
:1048100022941F9A229CA24253D81C780A9E1D9A69
:104820003443149E1C703C783443099E3C703478A9
:1048300014431A9A3470089E347814431C9A3470C6
:10484000019E34781443139A34700F9E9CF80040F4
:1048500034430C9E8CF800409EF8004034430A9E7E
:104860008EF8004098F80040144388F800402C78F7
:104870003443149E2C709AF8004034438AF8004068
:104880000478209A0B9E14431E9A04700C781443EB
:10489000219A0C70347814430C9A34700F9E9BF854
:1048A00000403443169E8BF80040109C1C1BA65DF4
:1048B0001643169AA654159E139AA65D1643159A8A
:1048C000A654099A013301370CF1010C01320EF1A3
:1048D000010E08F10108013509920AF1010A089A4E
:1048E000013001310BF1010B01320892019A0132C2
:1048F00001920B9A01320B921B9A9A4289D1FFF7CF
:104900009BB81846FEF7C1BE0F4B1B68002B25DB7A
:104910000E4A1268934221DA0D4A1268002A40F0CA
:104920001D820C4A6421126801FB03239B68002B43
:1049300000F0DD811978084A002908BF1346D7E145
:10494000B4840020101701207816002018000020E1
:10495000841600207400002068E10224764B1B6856
:10496000002B00F0C481012B00F00282734B2EAAB1
:104970001021199310461B680E920133704A22F0E1
:1049800071F9D9F818326F48DB689847202800F28F
:10499000DD81D9F818326B48DB689847013883B25B
:1049A000A9F81C32D9F8183266489B689847012844
:1049B00000F2CA81D9F8183262489B6898470138DA
:1049C00083B2A9F81E32604B9DF8B8A05A7893F8CC
:1049D00000805B6804920593BAF1000F3EF4EFAEDD
:1049E0000E9B0193AAF12004E3B25E2B3EF6E7AEE4
:1049F000D9F818325348DB689847B9F81C32434459
:104A00009842C0F29C81D9F818324E489B6898476A
:104A1000B9F81E32049A039313449842C0F28F816E
:104A2000002A00F0988102FB04F4B9F81CB2B8F136
:104A3000000F4BD06FF0004E059BCDF818A0A64498
:104A40001444039F03EB4E0E023B03EB440302931B
:104A500049F24C235B449A4607F007030126FA0803
:104A60003F2F06FA03F6394B0AEBC2123EF8024F0B
:104A700076B298BF00251A4488BF01256FEA060C5C
:104A8000594600230BE07F2904D81DB910780CEAA1
:104A900000001070013301320131434510D004FA97
:104AA00003F00004EFD47F29F4D8002DF2D1107860
:104AB0000133013201313043434502F8010CEED19C
:104AC000029B01379E45C7D1DDF818A00BEB080407
:104AD000D9F818321B48A4B2DB689847844206D341
:104AE000D9F818321748DB689847013884B2D9F8EA
:104AF000183214489B68A9F81C429847039B8342CC
:104B000007D3D9F818320F489B689847013883B209
:104B10000393039BA9F81E32019B1B7853457EF437
:104B20004EAE019B13F801AF0193BAF1000F7FF471
:104B300059AFFEF744BE00BF841600206016002067
:104B400088E10224CC16012070040020B4840020E7
:104B500013F042FCAC4B1B689842BFF45FAC1425C9
:104B60001022D308012102F0070005EBC3130A4409
:104B700001FA00F04B44322A93F84C1221EA00016A
:104B800083F84C12EDD101356D2DE9D199F8B813A8
:104B90009E4B41F0010103F1580089F8B8131A68DF
:104BA00042F0013243F8042B8342F8D199F8B8352A
:104BB000112589F8B81343F0020389F8B835EA08DB
:104BC00005F007010123013509EBC2128B40312D9D
:104BD00092F8B81243EA010382F8B832EFD199F89B
:104BE000603543F0020389F86035894BA3F1580121
:104BF00013F8012D42F002028B421A70F8D199F895
:104C0000603343F0010389F86033EA0805F00701D7
:104C10000123013D09EBC2128B40102D92F8601266
:104C200043EA010382F86032EFD12668022E69DD83
:104C3000032E00F0B380042E00F0C280754B2AAE24
:104C4000754A26AC93E80300136826903046ADF809
:104C50009C102946714A22F005F8714B2046132119
:104C60000CCBFCF7A5FF6F4B1F2130460CCBFCF79C
:104C70009FFFFFF7D4BB6C4BD3ED006A6B4BF8EE94
:104C8000E66A93ED007AB8EEC77AC6EE877AB0EEA0
:104C9000677ABEEECD7A17EE103A03F12C007F282A
:104CA0003FF6B7AB03F56B730B214B4493F84C22E3
:104CB00042F0200283F84C22CB0801F007040122C5
:104CC00000EBC3131144A2404B443D2993F84C42DE
:104CD00042EA040283F84C22EED1FFF79ABBB9F8FE
:104CE0001CA2FEF76DBCB9F81CB2FEF73CBE504BDF
:104CF0002EAA102110460E924E4A21F0B3FF4E4BC1
:104D000019933EE626AC731C29464C4A204621F0F6
:104D1000A9FF4B4BF6EE007A9FED4A7A03EB860330
:104D20002AAE2946484AD3ED006A3046E6EE877A35
:104D3000FDEEE77A17EE903A21F094FF8DE7019BA4
:104D40004FF0000A1B78E9E601233AE6202327E624
:104D50000120FEF7FCBCB9F81CB2B7E6012A7FF4CB
:104D600005AE3A4A6421126801FB03235B680BBB62
:104D70002F4B2EAA102110460E92354A21F072FFB9
:104D80002D4B1993FDE5DFED336AFEF7C7BF012315
:104D9000DFED306A06930893FEF7C0BF249B2AAE6E
:104DA0002D4A29461B683046269226AC1B4A21F024
:104DB00059FF52E719781E4A002908BF1346D8E761
:104DC000264B274A93E8030012782690ADF89C10F2
:104DD000A2B1244BF6EE007A9FED1A7A2AAED3EDFB
:104DE000006A2946184A3046E6EE877A26ACFDEE80
:104DF000E77A17EE903A21F035FF2EE71A4B26ACF2
:104E00002AAE2A9329E700BF441700201418012076
:104E10006D1A0120A8E102245000002034E202248F
:104E200078040020580400200C840020088400200E
:104E300068E1022478E102246016002098E102244F
:104E4000880000200000C84250E2022474000020C4
:104E500080E102240000AF4242504D00A0E1022454
:104E6000E4820020080000204F46460010B50B46A3
:104E700082B00446002118308DF807300EF020FE75
:104E8000642301220DF10701204611F08BFF02B0CF
:104E900010BD00BF2DE9F04F83B05C1A0C9D002CB3
:104EA0009DF834E0A5EB0207B8BF6442002FB8BFFD
:104EB0007F428B428CBF4FF001094FF0FF39954282
:104EC000A4EB070C4BD87F2B00F292803F2D00F211
:104ED0008F804FF0FF3605F007080096EE0803EBD1
:104EE000C6160644BEF1000F48D14FF0010E8B42AA
:104EF0000EFA08F896F834E02EEA080E86F834E048
:104F000001D1954228D07E4201974FEAD20E7F29E7
:104F100002F0070A4FEA4C0801EBCE1E0CD83F2ADC
:104F2000864409D84FF0010B0BFA0AFB9EF834A017
:104F30002AEA0B0A8EF834A0B6EB4C0F03DA019F75
:104F40004944ACEB070C444502DD009FA4443A44BD
:104F50008B42DAD19542D8D103B0BDE8F08F01265B
:104F60007F2B00964BD83F2D49D8EE0805F0070857
:104F700003EBC6160644BEF1000FB6D04FF0010E8B
:104F80008B420EFA08FE96F834804EEA080E86F838
:104F900034E001D19542DFD07E4201974FEAD20E34
:104FA0007F2902F0070A4FEA4C0801EBCE1E0CD80D
:104FB0003F2A864409D84FF0010B0BFA0AFA9EF8F3
:104FC00034B04AEA0B0A8EF834A0B6EB4C0F03DA81
:104FD000019F4944ACEB070C444502DD009FA4440B
:104FE0003A449942DAD19542D8D103B0BDE8F08F66
:104FF000954201D18B42AFD04FF0FF3600967E42F2
:105000000197BEF1000FC9D17FE700BF70B504461C
:10501000ADF5AB5D41F2585204F5005101AB04F51A
:10502000AB5602A8D1F8B81A1960314621F0C8F978
:10503000D4E9000110F02AF9054613F07FFB48B9C6
:1050400041F25852291D304621F0AAF978B90DF5E0
:10505000AB5D70BD41F25C51284613F0F7F841F2A8
:105060005852291D304621F09BF90028EFD0616885
:1050700041F25C5520684A1910F004F90DF5AB5364
:105080002A465B1BD4E9000110F0F8F80DF5AB5D82
:1050900070BD00BFF8B51F4D41F258571E4C1F4E52
:1050A000284606F0DFFB22461D49284620F096FBE5
:1050B00030460BF037F822461A49304620F08EFB76
:1050C0002246194900261948043520F087FB22465C
:1050D0001749184820F082FB22461749174820F04C
:1050E0007DFB2246164C1749174820F077FB3A46BD
:1050F000314604F10800C4E9005621F089F904F5AD
:10510000AB5004F500543A46314621F081F9C4F819
:10511000B86AF8BDB4840020000000201484002088
:1051200031B800241DC20024810A0024E882002036
:10513000790A0024ACE808C17D0A002424BB07C119
:10514000381B0120290B0024000000C02DE9F04F7E
:105150002DED0A8BADF5BB5D00223021C44881B036
:10516000C44E06F093FB3021C14805F069FDC048EC
:1051700005F070FD86ED000AF1EE103A43F0807301
:10518000E1EE103ABC484FF480620021C36B00246A
:105190000025B7EE008A43F08073C363B74821F05F
:1051A00037F9B74B1321B7480CCBFCF701FD392178
:1051B0006220FCF717F8B44A0123B44806CAFCF78A
:1051C000E5F8FCF73BF840F6AC51A94805F0E0FCE7
:1051D00096ED000AAE480BF0A3FE41F65402002102
:1051E000AC4821F015F941F644120021AA4821F0FB
:1051F0000FF941F24C720021A84821F009F941F25F
:1052000038620021A64821F003F94FF461720021B1
:10521000A44821F0FDF84FF40B620021A24821F0D0
:10522000F7F8A24AA248114602F66833C2F8644B66
:10523000C2F8604BC2F85C4BC2F8584BC2F8544BF2
:10524000C2F8504B9B4A1A6001F66C339A4A1D60B3
:1052500001F5376321461A60984A21F0D9F8984B36
:1052600096ED000A97481C6020F082F896ED000A3F
:1052700095481FF051FA96ED000A94481FF0E6FD9C
:10528000934896ED000A1FF0B1FCD6ED008A9FED21
:10529000910A914C80EE280AC4ED048A656025606D
:1052A00020F022FD9FED8D7A78EE407A87EE280A75
:1052B000C4ED027A20F018FD38EE400A84ED030AAE
:1052C000FBF734FC864B874A1968914203D15A6830
:1052D000012A02F079850DF5EC630793824B209348
:1052E000824B1693079B41F25852002182A8A3F5E6
:1052F000AB6521F08DF87E480723294641F25852CC
:1053000000F5AB542B6003950546083021F058F8A2
:1053100041F258520399204621F052F800212868A2
:1053200069600FF0B3FF03685A1E012A02F2158567
:105330006F4A011D204602F500521D92C2F8B83A8C
:1053400041F2585221F03CF86A49D1F86035072BF8
:105350000FD0204641F258520C46A1F6F87121F0C8
:105360002FF801231D9AA4F58050C2F8B83AFFF730
:105370004DFEFCF715F902220421454806F0C0FD58
:1053800001220421424806F0BBFD022205214048CB
:1053900006F0B6FD012205213D4806F0B1FD9FED66
:1053A000560A3348002405F0A9FC544B9FED540ADB
:1053B00027461860A0462E4805F0A0FC514B9FEDF3
:1053C000528A1860514BF0EE48AAB0EE48AA18680D
:1053D000F0EE489AFBF7A8FD254805F03FFC4C4944
:1053E0002348B0EE489A05F027FC4A4B204801219B
:1053F0001C7005F0DBFC21461D481E9405F0E4FC02
:1054000012F0EAFF444AF0EE488A269019924FF0D3
:10541000FF321F940F9413941C9415940C941B94B6
:1054200014921094CDE90D4412F0D6FF3B4A054684
:10543000137833B9269BC31AB3F57A7F01D90123B8
:1054400013700B4A00233649D2F884200C6892F876
:105450001CA092F84090334A0B6016681360AAF1C2
:10546000FF02314BB2FA82F21B7852095EE000BFB4
:10547000B48400204800002000EF00E00017012065
:1054800060040020E4E1022468040020ECE102242E
:10549000148400206C170020C02F00200449002035
:1054A00050600020887600200C7A00206C77002065
:1054B000083409C13D0A573F3333B33E00EE0200C2
:1054C00058160020E8820020ACE808C124BB07C1C0
:1054D000000000C07C59C4C450170020DB6F75C6A3
:1054E00000001090564D4731740000201800002035
:1054F000381B0120382B01208FC2753D4C1700202E
:105500003333B33E48170020000000007816002017
:105510002187002420050020B0E10224D9140020B6
:105520002405002028050020681700202292A9F1F8
:10553000FF02B2FA82F252092192002B40F0508110
:1055400009EA0A03FF2B00F0AF84BAF1FF0318BF8A
:105550000123B9F1FF0918BF4FF0010913EA080848
:1055600000F09784109B002B40F09284B9F1000F5B
:1055700000F08E84894B1B682B2B17D8884A52F871
:105580002300884A52F823201B1A012AB8BF01229F
:10559000013304D59B18FDD49A4202DC9B1A9A422F
:1055A000FCDD18447D4B1860FBF7BEFCDFB17B4B84
:1055B0001B682B2B17D87A4A52F82300794A52F8E5
:1055C00023201B1A012AB8BF0122013B04D59B18D6
:1055D000FDD49A4202DC9B1A9A42FCDD18446F4BC0
:1055E0001860FBF7A1FC002310936F4B1B7803F0AE
:1055F000FF01002B40F09C806C4B1B78002B40F08F
:10560000B985149BDF43FF0F002C40F0F384002E7C
:1056100004DD0123644A137000230C931B9BAB42EF
:1056200094BF002707F00107002F00F05581149E5A
:105630005F48314606F04AFC04465D48214606F0C4
:105640001FFB4FF48062054600215A4820F0E0FE1F
:10565000594B284602210CCBFCF7AAFA331F012B29
:1056600040F2D385149CF7EE006A544B7A229FEDEA
:10567000547A062003EB8403A600D3ED007A24239A
:10568000C7FE877A9FED4F7AC7FEE67A194667EE26
:10569000877AFBF717FE302310462421FBF712FE12
:1056A000FDEEE77A062219467A20FBF70BFE24234B
:1056B00030211046FBF706FE17EE903A002B15DD61
:1056C000414A0733072102F180007F294FF0FF058F
:1056D00001F1010104D8147864F01F0414700570FE
:1056E0008B4202F1010200F10100EED2334BF6EEE3
:1056F000007A9FED367A18211E44354A64A8D6ED0B
:10570000006AE6EE877AFDEEE77A17EE903A21F02E
:10571000A9FA304B342164A80CCBFCF749FAFBF70B
:105720008DFD0F212C48DDE9217805F031FA7BE66B
:105730001D4B1B78012B00F07A841B4B1B78022B2E
:1057400000F0B285184B1B78042B00F07787164BBE
:105750001B78072B01F02A80134B1B78052B01F0D7
:105760001D83114B1B78082B01F068820E4B1B78B0
:10577000062B02F04D80002C42F02680002E04DD26
:105780000123164A1370084A1370084B1B78002B2C
:1057900042F0C6811598FDF787F8C2E77816002019
:1057A0009C150020EC14002068170020D91400205C
:1057B000148400200017012060040020C014002081
:1057C000000000000000E442071901200000C84268
:1057D00050E2022478040020B4840020D814002071
:1057E000324B1B78042B7FF400AF09EA0A03FF2B2E
:1057F00003D1109B002B01F04E83BAF1FF0318BFB9
:105800000123B9F1FF0918BF4FF00109002B00F087
:10581000EA84B8F1000F00F0E684109A002A40F004
:10582000E284B9F1000F00F0DE84214B21491B68AE
:105830000A68002A01F395871F4AD15C01F0FF0234
:10584000002941F018871D4A1268002A42F07D8223
:105850001B4B1C491A601C4B1A601C4B1A601C4BDA
:105860001A701C4A1368013B0B601368114A1360DD
:10587000002F3FF4B8AE0E4B00220F491B68CA54EC
:105880000B78002B41F04F874B78002B41F052876B
:105890008A7802F0FF03002A7FF4A5AE074A10932E
:1058A0001360094A1360064A13609EE668170020D9
:1058B0006016002074160020E014002008840020E8
:1058C000DC140020140500200C8400206416002045
:1058D00068160020500000201E9BAB4200F2C884D6
:1058E000B84B4AAA64A91D684EAB2846FBF736FAA6
:1058F00039464FF48062B44820F08AFD8022FF21AF
:10590000B14820F085FDB14B1A6842F00F3243F8E0
:10591000042BAF4A9342F7D12B2D00F2C284AD4B3A
:1059200053F82530AC4A28215AA8AC4C12682546B9
:105930000092AB4A21F096F901210320FBF752FCBB
:10594000A64A00235AA806CAFBF720FDA54BA64A83
:105950002821D3ED007A5AA8FDEEE77A17EE903AA7
:1059600021F080F95AA8FAF7C5FC0121A0EBC00389
:1059700013F1800048BF03F18100C0F34F00FBF733
:1059800031FC00235AA894E80600FBF7FFFC974B74
:10599000974C01211B78002B964B0ABF1C466E20AA
:1059A0006720FBF71FFC204600232C46D5E9001298
:1059B000FBF7ECFC079D0E21A5F5C76318688E4B1D
:1059C0000CCBFCF7F5F8A5F5C5632321186894E81E
:1059D0000C00FCF7EDF87B4B1B682B2B00F2588476
:1059E000864A52F82320012AB8BF01221146249288
:1059F000834A52F823209F1A1346C1F140025200F5
:105A000092FBF1F2062AB8BF06220A9202322392D2
:105A10000A9A4FF0000BBA4618930132794BD846D8
:105A2000129380331192D0454FF001021A930B92DA
:105A300040F08381119B0B9A934217D314460A9925
:105A40001A98129A234621447F2B03F1010307D8A9
:105A5000147864F003041470047844F07F04047034
:105A60008B4202F1010200F10100EDD9189B002BDD
:105A700005DB1A46169B1B68934200F3338256AA35
:105A800008F101030C2156A803925F4A259321F0E7
:105A9000E9F80398FAF72EFC0A9A00EB40035B4DF5
:105AA000B2EB43030B9A05F5067048BF013302EBD6
:105AB0006303013A9342D8BF0B9B01339CB2D5F8E4
:105AC0001832DB689847844207D3D5F8183205F5B9
:105AD0000670DB689847013884B24C4BA3F81C422F
