:020000042400D6
:1000000000000220390A00242D0A002479810124ED
:100010002D0A00242D0A00242D0A002400000000CF
:100020000000000000000000000000002D0A002475
:100030002D0A0024000000002D0A0024FD80012468
:100040002D0A00242D0A00242D0A00242D0A002444
:100050002D0A00242D0A00242D0A00242D0A002434
:100060002D0A00242D0A00242D0A002435560124CF
:10007000415601242D3201244D56012459560124A4
:10008000217B0124ED3B01242D0A00242D0A0024AC
:100090002D0A00242D0A00242D0A00242D0A0024F4
:1000A0002D0A00242D0A00242D0A00242D0A0024E4
:1000B000553D0224613D02246D3D0224213C012472
:1000C0002D0A00242D3C01242D0A00245967012407
:1000D000656701245579012481790124B5790124CA
:1000E0002D0A00242D0A0024000000002D0A0024FF
:1000F0002D0A00242D0A00242D0A00242D0A002494
:100100002D0A00242D0A0024793D02247167012460
:10011000E97901241D7A01242D0A00242D0A0024E6
:100120002D0A00242D0A002495670124C9670124A3
:10013000557B01242D0A00242D0A00242D0A0024B9
:1001400000000000000000000000000000000000AF
:100150002D0A00242D0A00242D0A0024517A01249E
:10016000393C01242D0A00240D8101243181012410
:100170002D0A0024558101242D0A00242D0A002473
:100180002D0A00242D0A0024857A0124B97A01243D
:100190007D670124896701242D0A00242D0A00248B
:1001A0002D0A00242D0A00242D0A00242D0A0024E3
:1001B000295301242D0A00242D0A00242D0A00248D
:1001C0002D0A00242D0A00242D0A00242D0A0024C3
:1001D0002D0A00242D0A00242D0A00242D0A0024B3
:1001E0002D0A00242D0A00242D0A00242D0A0024A3
:1001F0002D0A00242D0A00242D0A00242D0A002493
:100200002D0A00242D0A00242D0A00242D0A002482
:100210002D0A00242D0A00242D0A00242D0A002472
:100220002D0A00242D0A00242D0A002400000000BD
:100230002D0A00242D0A0024000000002D0A0024AD
:100240002D0A00242D0A00242D0A00242D0A002442
:100250002D0A00242D0A00242D0A00242D0A002432
:100260002D0A00242D0A00242D0A00242D0A002422
:100270002D0A00242D0A0024ED7A0124000000003C
:100280002D0A00242D0A00242D0A0024000000005D
:08029000000000002D0A00240B
:1002A00010B5054C237833B9044B13B10448AFF3B0
:1002B00000800123237010BDE00400200000000036
:1002C0009C44032408B5034B1BB103490348AFF317
:1002D000008008BD00000000E40400209C440324CA
:1002E00010F8012B11F8013B012A28BF9A42F7D0E0
:1002F000D01A7047034613F8012B002AFBD1181AB5
:1003000001387047000000000000000000000000FD
:1003100001F0FF01102A2BDB10F0070F08D010F8B6
:10032000013B013A8B422DD010F0070F42B3F6D1BA
:10033000F0B441EA012141EA014122F007047FF0D3
:1003400000070023F0E80256083C85EA010586EA2A
:10035000010685FA47F5A3FA87F586FA47F6A5FA66
:1003600087F68EB9EED1F0BC01F0FF0102F0070272
:1003700032B110F8013B013A83EA010313B1F8D11D
:100380000020704701387047002D06BF35460338FE
:10039000073815F0010F07D1013015F4807F02BF37
:1003A000013015F4C03F0130F0BC0138704700BF88
:1003B00081F0004102E000BF83F0004330B54FEA16
:1003C00041044FEA430594EA050F08BF90EA020F83
:1003D0001FBF54EA000C55EA020C7FEA645C7FEA16
:1003E000655C00F0E2804FEA5454D4EB5555B8BF39
:1003F0006D420CDD2C4480EA020281EA030382EAAA
:10040000000083EA010180EA020281EA0303362D3B
:1004100088BF30BD11F0004F4FEA01314FF4801C0E
:100420004CEA113102D0404261EB410113F0004F20
:100430004FEA03334CEA133302D0524263EB4303D7
:1004400094EA050F00F0A780A4F10104D5F1200E75
:100450000DDB02FA0EFC22FA05F2801841F10001D0
:1004600003FA0EF2801843FA05F359410EE0A5F1A4
:1004700020050EF1200E012A03FA0EFC28BF4CF0D5
:10048000020C43FA05F3C01851EBE37101F000458B
:1004900007D54FF0000EDCF1000C7EEB00006EEB98
:1004A0000101B1F5801F1BD3B1F5001F0CD3490822
:1004B0005FEA30004FEA3C0C04F101044FEA445279
:1004C00012F5800F80F09A80BCF1004F08BF5FEA00
:1004D000500C50F1000041EB045141EA050130BDE0
:1004E0005FEA4C0C404141EB0101013C28BFB1F5F2
:1004F000801FE9D291F0000F04BF01460020B1FA3D
:1005000081F308BF2033A3F10B03B3F120020CDA0F
:100510000C3208DD02F1140CC2F10C0201FA0CF0ED
:1005200021FA02F10CE002F11402D8BFC2F1200C52
:1005300001FA02F120FA0CFCDCBF41EA0C01904008
:10054000E41AA2BF01EB0451294330BD6FEA040451
:100550001F3C1CDA0C340EDC04F11404C4F120023C
:1005600020FA04F001FA02F340EA030021FA04F34E
:1005700045EA030130BDC4F10C04C4F1200220FAA5
:1005800002F001FA04F340EA0300294630BD21FAE3
:1005900004F0294630BD94F0000F83F4801306BFA9
:1005A00081F480110134013D4EE77FEA645C18BF9D
:1005B0007FEA655C29D094EA050F08BF90EA020F34
:1005C00005D054EA000C04BF1946104630BD91EA2C
:1005D000030F1EBF0021002030BD5FEA545C05D12F
:1005E0004000494128BF41F0004130BD14F580046E
:1005F0003CBF01F5801130BD01F0004545F0FE41E2
:1006000041F470014FF0000030BD7FEA645C1ABF16
:10061000194610467FEA655C1CBF0B46024650EA4D
:10062000013406BF52EA033591EA030F41F4002179
:1006300030BD00BF90F0000F04BF0021704730B5FF
:100640004FF4806404F132044FF000054FF00001D4
:1006500050E700BF90F0000F04BF0021704730B595
:100660004FF4806404F1320410F0004548BF40426A
:100670004FF000013EE700BF42004FEAE2014FEABF
:1006800031014FEA02701FBF12F07F4393F07F4F9A
:1006900081F06051704732F07F4208BF704793F09D
:1006A0007F4F04BF41F40021704730B54FF46074B0
:1006B00001F0004521F000411CE700BF50EA0102B3
:1006C00008BF704730B54FF000050AE050EA01025C
:1006D00008BF704730B511F0004502D5404261EBCC
:1006E00041014FF4806404F132045FEA915C3FF40D
:1006F000D8AE4FF003025FEADC0C18BF03325FEAAA
:10070000DC0C18BF033202EBDC02C2F1200300FA5A
:1007100003FC20FA02F001FA03FE40EA0E0021FA7F
:1007200002F11444BDE600BF53B94AB9002908BF1D
:1007300000281CBF4FF0FF314FF0FF3000F074B9BC
:10074000ADF1080C6DE904CE00F006F8DDF804E028
:10075000DDE9022304B070472DE9F047089D044607
:100760008E46002B4DD18A42944669D9B2FA82F264
:1007700052B101FA02F3C2F1200120FA01F10CFAA0
:1007800002FC41EA030E94404FEA1C48210CBEFBD8
:10079000F8F61FFA8CF708FB16E341EA034306FB61
:1007A00007F199420AD91CEB030306F1FF3080F0F0
:1007B0001F81994240F21C81023E63445B1AA4B23D
:1007C000B3FBF8F008FB103344EA034400FB07F7DF
:1007D000A7420AD91CEB040400F1FF3380F00A8120
:1007E000A74240F207816444023840EA0640E41B15
:1007F00000261DB1D4400023C5E900433146BDE8C1
:10080000F0878B4209D9002D00F0EF800026C5E962
:10081000000130463146BDE8F087B3FA83F6002E7A
:100820004AD18B4202D3824200F2F980841A61EBF2
:10083000030301209E46002DE0D0C5E9004EDDE710
:1008400002B9FFDEB2FA82F2002A40F09280A1EBF8
:100850000C014FEA1C471FFA8CFE0126200CB1FB4D
:10086000F7F307FB131140EA01410EFB03F0884246
:1008700008D91CEB010103F1FF3802D2884200F2D3
:10088000CB804346091AA4B2B1FBF7F007FB101165
:1008900044EA01440EFB00FEA64508D91CEB040403
:1008A00000F1FF3102D2A64500F2BB800846A4EB5E
:1008B0000E0440EA03409CE7C6F12007B34022FA49
:1008C00007FC4CEA030C20FA07F401FA06F31C4378
:1008D000F9404FEA1C4900FA06F3B1FBF9F8200C85
:1008E0001FFA8CFE09FB181140EA014108FB0EF0CB
:1008F000884202FA06F20BD91CEB010108F1FF3A1B
:1009000080F08880884240F28580A8F10208614426
:10091000091AA4B2B1FBF9F009FB101144EA014134
:1009200000FB0EFE8E4508D91CEB010100F1FF34DF
:100930006CD28E456AD90238614440EA0840A0FB77
:100940000294A1EB0E01A142C846A64656D353D04D
:100950005DB1B3EB080261EB0E0101FA07F722FA71
:1009600006F3F1401F43C5E9007100263146BDE89A
:10097000F087C2F12003D8400CFA02FC21FA03F3FD
:10098000914001434FEA1C471FFA8CFEB3FBF7F07E
:1009900007FB10360B0C43EA064300FB0EF69E42A3
:1009A00004FA02F408D91CEB030300F1FF382FD23C
:1009B0009E422DD9023863449B1B89B2B3FBF7F6E4
:1009C00007FB163341EA034106FB0EF38B4208D9BD
:1009D0001CEB010106F1FF3816D28B4214D9023EFE
:1009E0006144C91A46EA004638E72E46284605E71C
:1009F0000646E3E61846F8E64B45A9D2B9EB0208ED
:100A000064EB0C0E0138A3E74646EAE7204694E77C
:100A10004046D1E7D0467BE7023B614432E73046AF
:100A200009E76444023842E7704700BF684620F097
:100A300007018D46FEE700BF0A480B4A904208B501
:100A400003D0121A094925F0FBFB0948094A9042D4
:100A500003D0121A002125F01BFC25F0ADFB04F099
:100A6000EFFCFEE700000020DC040020D844032453
:100A7000E004002044830120704700BF704700BF9E
:100A8000704700BF214B1A68272A01DC28221A6010
:100A90001A68B2F5967F02DD4FF496721A601C4A0E
:100AA0001168002901DC012111601168082901DDAC
:100AB0000821116093ED007AF6EE007ADFED155A09
:100AC000B8EEC77A144B154AD3ED006A85EE876AF3
:100AD00013491448E6EE267AFDEEE77A17EE903ACF
:100AE000012BB8BF0123A2FB03C20360D2080A6036
:100AF0000B68EF2B01DCF0230B600B68B3F57A6F0A
:100B000002DD4FF47A630B60704700BF5400002091
:100B1000380000200000704230000020CDCCCCCC4A
:100B20000400002034000020704700BF38B52DEDD0
:100B3000028B9FED298AF1EE008A284BB0EE480A1D
:100B40002748D3ED007A274CA7EEA80A264D23F0BC
:100B500041FF264B224893ED000A23F01FFF9FED33
:100B6000240A1F4823F070FF224BB0EE480A2046AB
:100B7000D3ED007AA7EEA80A24F0EAF91E4B20462E
:100B800093ED000A24F0B2F91C4B204693ED000AC5
:100B900024F0FCFA20469FED1A0A24F0C3FA194B00
:100BA000F0EE007A9FED180A93ED007A2846A7EE42
:100BB000270A24F06FF8154B284693ED000A24F01D
:100BC00055F8134B284693ED000ABDEC028BBDE8A7
:100BD000384024F037B800BFCDCCCC3D28000020F1
:100BE000ACCC60C1249F5FC1000000C03C0000206D
:100BF000CDCC4C3E2C0000204800002010000020EE
:100C00000000FA4344000020CDCC4C3D50000020B1
:100C10002000002038B5384D0446042128460BF04A
:100C200075F803460521284623600BF06FF803464C
:100C30000021284663600AF09DFF2846012184EDCB
:100C4000020A0AF097FF2846022184ED030A0AF0FF
:100C500091FF2846032184ED040A0AF08BFF274BFD
:100C600027491B68274AA361274B086811681B683E
:100C7000264AA362264BE06110681B686162E3624A
:100C80002449254A254B2062086811681B68244ABC
:100C9000A363244B20636163106823491B68234AC4
:100CA000E06323640868224B11681B68A164214A31
:100CB00021496064E3641068204B0968204A20657C
:100CC00084ED050A616512681B681E48E3651E49CC
:100CD0001E4B0068A26509681D4A1B686166A36611
:100CE00011681C4B1C4A2066204612681B68E1668E
:100CF0002267636738BD00BFF0830020F4820020C4
:100D000004050020B8830020381600204000002091
:100D1000140000205C00002060000020680000201B
:100D2000640000207C0000202C0800202800002007
:100D30003C000020D01400202C00002010000020D7
:100D400048000020481600204400002050000020E9
:100D500020000020B8820020AC830020F8B5684C49
:100D60008C46246884421CDD6649674D0C6864210A
:100D700000FB01F166581660621805F58051546851
:100D800001441C6091F864350BB3C0EB001341F2D1
:100D900084517822604605EBC303194425F050FACC
:100DA000F8BD011B594C604601EB4111146042F241
:100DB0008844554A04EB810402EB810C42F29441D1
:100DC0001444782261441C6025F03AFAF8BDD2ED53
:100DD0000F4A4FF07C5492ED105AF5EEC04AD2ED16
:100DE000115A92ED126AD2ED136AF1EE10FA92EDF9
:100DF000157AB5EEC05AD2ED167A116DD8BFF6EE5F
:100E0000004AD36DF1EE10FA106EF5EEC05AD2ED35
:100E1000050A92ED061AD8BFB6EE005AD2ED071AAF
:100E2000F1EE10FA92ED082AB5EEC06AD2ED092A69
:100E300092ED0A3AD8BFF6EE005AD2ED0B3AF1EE37
:100E400010FA92ED0C4AF5EEC06AD2F834E0956BD8
:100E5000D8BF9FED2F6AF1EE10FAB5EEC07AD8BF79
:100E6000DFED2C6AF1EE10FAF5EEC07AD8BF9FEDF7
:100E70002A7AF1EE10FAD2E90376D8BFF6EE007ABC
:100E80000022CCED020A8CED031ACCED041A8CED95
:100E9000052ACCED062A8CED073ACCED083A8CED0C
:100EA000094ACCE90076CCF828E0CCF87030CCF8D0
:100EB00074001A4B1A48CCF844101A49CCF82C503C
:100EC000CCF86840CCED0C4A8CED0D5ACCED0E5AA6
:100ED0008CED0F6ACCED106A8CED127ACCED137AA2
:100EE000CCF85020CCF85430CCF85800CCF85C301A
:100EF000CCF86020CCF86410CCF86C30F8BD00BFA2
:100F00001800002058000020141B0120B8DF022424
:100F10003D0A573F3333B33ECDCCCC3E9A99993EF0
:100F20009A99193FCDCC4C3E30B5A1B0624C634D7F
:100F300001AB6A4602A9FFF711FF6149614B0868DE
:100F40000421029A186060480AF01AFF039A0521EA
:100F50005D480AF015FF9DED040A00215A480AF089
:100F60003FFF9DED050A012157480AF039FF9DED2D
:100F7000060A022154480AF033FF9DED070A0321B7
:100F800051480AF02DFF9DED0A7ADFED507A089A5C
:100F900087FE677A4E4BB5EEC07A09981A604D49C4
:100FA0000B9AF1EE10FA4C4B08604BF67F311A6049
:100FB0000C9BD8BF9FED497A2360494A494B92ED7B
:100FC000006A83ED007AD3ED007ADFED476A67EEC1
:100FD000867A9DED0D7A454AB5EEC07A444867EEB3
:100FE000A67AFDEEE77A17EE903A8B42A8BF0B4641
:100FF000012BB8BF0123F1EE10FA1360D8BFB1EE98
:10100000047A85ED007A94ED000A24F055F995ED07
:10101000000A374824F046F994ED007ADFED327A81
:10102000119CB4EEE77A12983249334AF1EE10FA85
:10103000324BCCBF012500251D700C60304B106079
:101040000D680E9C106843F8085B2E490F9D2E4AD0
:101050000C60186015601099139C2C4A2C4B116081
:1010600014981C602B4B159D18602B4B169A1D6015
:101070002A4B17991A602A4B189C1960294B19980A
:101080001A9A1C602849294B08601A6028491B9C41
:10109000284B1C9A0C6028481A601D9C1E99274BEF
:1010A0001F9A04601960264B1A60FFF73FFD254B1D
:1010B00001221A7021B030BD381600201400002023
:1010C0002417002068160020F083002000006144EF
:1010D000F482002004050020B8830020000096431D
:1010E00030000020400000206F12833A4C000020A6
:1010F000C0820020640000207C000020A883002023
:10110000AC8200205C00002060000020680000200D
:101110002C080020280000203C000020D0140020D3
:101120002C0000204800002010000020481600205D
:10113000440000205000002020000020AC8300204C
:10114000B8820020C814002070B5134C06460D4626
:10115000D4F8183204F50670DB689847B04207D817
:10116000D4F8183204F50670DB689847013886B267
:10117000D4F8183209489B68A4F81C629847A84222
:1011800006D8D4F8183205489B689847013885B2CC
:10119000A4F81E5270BD00BF90140120A8160120B3
:1011A00070B51E4E82B0B02400251D488DF8074052
:1011B0000134294612F0C2FB642301220DF107011C
:1011C0001848E4B215F02EFD294615488DF8075051
:1011D00012F0B4FB012264230DF10701114815F050
:1011E00021FD102329460E488DF8073012F0A6FB8A
:1011F000642301220DF107010A4815F013FD0121B6
:10120000074812F09BFB80223146642305481644B0
:1012100015F008FDB82CC7D102B070BDDC16012056
:10122000C8160120B01601202DE9F04F8BB00678CA
:101230000AAC0190079304E90600002E00F0C0807C
:101240009DF82130B0469DF8209004934C46099BB0
:101250000693A8F12005EBB25E2B00F2DE80744EFF
:10126000D6F8183206F50670DB689847B6F81C32D7
:1012700023449842C0F2CC80D6F8183206F50670A6
:101280009B689847B6F81E32049A03931344984219
:10129000C0F2BE80002A00F0C58002FB05F56FF0A9
:1012A000004C069BAC441544B6F81CE203EB4C0C16
:1012B000023B039F03EB4503DDF81C90CDF814803F
:1012C00002933CF8021F002C42D007F007030125CF
:1012D00049F24C223F2F05FA03F54FEAD703724437
:1012E00098BF00204FEAC31388BF01206DB2F246B9
:1012F0001A44504B6FEA05081A44B9F1000F64D143
:101300004B460FE0BAF17F0F06D828B992F800B02B
:1013100045EA0B0B82F800B0013301320AF1010AF1
:101320009C4215D001FA03FB1BF4004FEAD0BAF13E
:101330007F0FF1D80028EFD192F800B001330132CD
:101340000AF1010A08EA0B0B9C4202F801BCE9D140
:10135000029B01376345B4D1DDF814800EEB040520
:10136000D6F818323448ADB2DB689847854206D3C8
:10137000D6F818323048DB689847013885B2D6F87D
:1013800018322D489B68A6F81C529847039B83424D
:1013900007D3D6F8183228489B689847013883B29B
:1013A0000393039BA6F81E32019B1B7898453CD102
:1013B000019B13F8018F0193B8F1000F7FF449AF3F
:1013C000002630460BB0BDE8F08F00230FE0BAF1E5
:1013D0007F0F06D828B992F800B045EA0B0B82F8C7
:1013E00000B0013301320AF1010A9C42B0D001FA87
:1013F00003FB1BF4004FEAD1BAF17F0FF1D80028AC
:10140000EFD192F800B008EA0B0B82F800B0E8E7E1
:10141000019B4FF000081B78C8E7464630460BB0EA
:10142000BDE8F08FB6F81CE298E71E46C9E700BF9A
:101430009014012090840020A8160120654A664B74
:101440002DE9F04FD3F884340025D2F800B0A3B0D2
:10145000624A5B4415602C2B1F46A8BF2C27AB4269
:1014600040F393805E4B012600936C1C03AB02AAF1
:1014700004A92846FFF772FCA74240F3A880CBF1ED
:10148000010342F28848574AAA462B44DDF80890E7
:1014900003EB431308EB830303EB020806E0039915
:1014A000FEF71EFFB8B90134A74271D06423A345EB
:1014B0004D4A454604FB03F34C4803DD1268D1183E
:1014C000D0584D68494608F18408FEF709FF0346E5
:1014D0002846002BE3D0A4EB0A08009B5445554650
:1014E0004146C3F800A044DDDFF808E1AC42DFF874
:1014F00008C10EEB85023E480CEB850A00EB850324
:1015000001924AEA0209D4BF0022012243EA0909F2
:10151000C9F30209B9F1000F18BF0022002A40D018
:1015200008F1FF39B9F1090F3BD9AC42D8BF4FF0F0
:101530000108019AAAF108094FEA580A083A03EB90
:10154000CA0AC3E90066083342F8085F49F8081F71
:1015500053455560C9F80410F3D128F00102424503
:1015600002EB050305D04EF823504CF8231040F849
:1015700023601A4BA74225461E6006F10106009B18
:1015800003F1040300933FF770AF23B0BDE8F08F81
:101590005546791B009BAC421D6013DDA4EB05088A
:1015A000A2E7019AAAF10400043BAC46043A0CF10C
:1015B000010C42F8045F40F8041F644543F8046FCF
:1015C000F5DCD6E7054B1E6023B0BDE8F08F0121A6
:1015D000E0E700BF18000020143B0120D4140020D5
:1015E0006C160020141B012058000020B8DF0224D4
:1015F000F882002088150020D81400202DE9F04F33
:1016000089B00D4608AC009004E90C009DF81890D4
:10161000FEF770FE09FB00F0C0F18003581CC0F219
:10162000E580002BB8BF0133C3F34F04DFF8D0A12E
:10163000ADB2DAF818320AF50670DB6898478442D2
:1016400007D3DAF818320AF50670DB6898470138D4
:1016500084B2DAF8183268489B68AAF81C429847A6
:10166000854206D3DAF8183263489B6898470138F8
:1016700085B29DF81930AAF81E520393079B059373
:10168000009B93F800B0BBF1000F00F0A780ABF116
:101690002004E3B25E2B00F2A180DAF8183256483B
:1016A000DB689847BAF81C324B449842C0F29980E4
:1016B000DAF8183250489B689847BAF81E32039AF5
:1016C000029313449842C0F28C80002A00F090806C
:1016D00002FB04F4BAF81C82B9F1000F4CD06FF091
:1016E0000047059BCDF810B027441444029E03EB3D
:1016F0004707023B03EB4403019349F24C23434465
:101700009B4606F0070301243C4A3F2E04FA03F4EB
:101710004FEAD60337F802CF98BF002564B288BFDE
:1017200001250BEBC31300206FEA040E134442465D
:101730000AE07F2A03D815B91978214319700130BE
:1017400001330132484511D00CFA00F10904F0D4FC
:101750007F2AF4D8002DF2D11978013001330132FB
:101760000EEA0101484503F8011CEDD1019B013649
:10177000BB42C6D1DDF810B008EB0904DAF8183224
:101780001D48A4B2DB689847844206D3DAF81832C1
:101790001948DB689847013884B2DAF818321648DD
:1017A0009B68AAF81C429847029B834207D3DAF849
:1017B000183211489B689847013883B20293029B04
:1017C000AAF81E32009B1B789B4507D1009B13F89B
:1017D00001BF0093BBF1000F7FF459AF09B0BDE822
:1017E000F08F009B4FF0000B1B78EDE700241DE706
:1017F000BAF81C82C0E700BFA81601209084002020
:10180000901401202DE9F04FFF2187B081468022FE
:10181000814824F03DFD814B03F180011A6842F0BC
:101820000F3243F8042B8B42F8D14846DFF8FC8195
:10183000FEF760FDC0EBC000D8F81832D0F1800090
:10184000DB6848BF0130C0F34F0408F506709847C5
:10185000844207D3D8F8183208F50670DB68984739
:10186000013884B2D8F818326D489B68A8F81C4239
:101870009847012800F2CA80D8F8183268489B6857
:101880009847013882B2674BA8F81E2293F800A04F
:101890005A7899F800B05B6803920593BBF1000F8A
:1018A00000F0AC805546CDF80090ABF12004E3B2D7
:1018B0005E2B00F2A380D8F818325948DB689847AD
:1018C000B8F81C322B449842C0F29B80D8F81832EA
:1018D00053489B689847B8F81E32039A0293134402
:1018E0009842C0F28E80002A00F0928002FB04F43D
:1018F000B8F81CA2002D4FD06FF00049059BCDF821
:1019000010B0A1441444DDF808C003EB4909023BC0
:1019100003EB4403019349F24C2353449B460CF0E0
:10192000070301274FEADC02BCF13F0F07FA03F778
:101930003D4B0BEBC21239F8024F7FB298BF002625
:101940001A4488BF01266FEA070E514600230BE0B8
:101950007F2904D81EB910780EEA000010700133F8
:1019600001320131AB4210D004FA03F00004EFD48D
:101970007F29F4D8002EF2D11078013301320131E1
:101980003843AB4202F8010CEED1019B0CF1010C83
:101990009945C4D1DDF810B00AEB0504D8F8183227
:1019A0001F48A4B2DB689847844206D3D8F818329F
:1019B0001B48DB689847013884B2D8F818321848B9
:1019C0009B68A8F81C429847029B834207D3D8F82B
:1019D000183213489B689847013883B20293029BE0
:1019E000A8F81E32009B1B785B4507D1009B13F8BB
:1019F00001BF0093BBF1000F7FF457AF07B0BDE804
:101A0000F08F009B4FF0000B1B78EDE701223AE7C7
:101A1000B8F81CA2C0E700BFDC1601205C1701204B
:101A2000A81601206004002090840020901401205A
:101A30002DE9F04FA2EB000B85B0BBF1000FB8BF52
:101A4000CBF1000B7F2A94BF4FF0000E4FF0010E38
:101A50003F2994BF0024012490420294C0F0C68123
:101A60004FF0FF3ABEF1000F02D1002C00F0C78109
:101A7000904200F0DC81DC460E468046F408BE4F02
:101A800006F007054FF0010908EBC414B8F17F0F09
:101A900009FA05F53C4407D83F2E05D894F84C9236
:101AA00045EA090584F84C525FEA4C0418BFD0445B
:101AB000A34540F36381013EDC44B142DED142459F
:101AC000DCD100240194A3EB010ABAF1000FB8BFE6
:101AD000CAF1000A3F2B94BF002401249942CAF1A5
:101AE00000060394C0F0A6814FF0FF3B1CB9BEF185
:101AF000000F00F0A881994200F0BC8137468C4667
:101B000096464FEADC04BEF17F0FDFF86C820CF0E2
:101B100007050EEBC4144FEA47090DD8BCF13F0F7F
:101B2000444409D84FF0010808FA05F594F84C82AE
:101B300045EA080584F84C52B6EB470F03DA0EF17C
:101B4000FF3EA7EB0A07B9F1000F00D0DC44A2EB7F
:101B50000E08B8FA88F84FEA5818634514BF0024F5
:101B600008F00104002C40F03E81B145C9DCA146DB
:101B70004FEADC04804E0CF007054FF0010A0EEB33
:101B8000C414BEF17F0F0AFA05F5344408D8BCF13D
:101B90003F0F05D894F84CA245EA0A0584F84C5248
:101BA00007B1DC446345E3D1B8F1000FE0D0A0EB0E
:101BB000020CBCF1000FB8BFCCF1000C7F2894BF21
:101BC0004FF000084FF0010890428CBF4FF0010E1B
:101BD0004FF0FF3EB8F1000F0FD1039C6CB9DD0848
:101BE00003F0070600EBC514634D25440124B440FF
:101BF00095F84C62344385F84C42019C1CBB674607
:101C00001E469246F4085C4A06F007054FF0010BA9
:101C10000AEBC414BAF17F0F0BFA05F5144407D888
:101C20003F2E05D894F84CB245EA0B0584F84C5287
:101C30007A0018BFF244944575DD013E6744B34213
:101C4000E0D15045DED1A1EB030CBCF1000FB8BFD1
:101C5000CCF1000C99428CBF01254FF0FF35CCF13F
:101C60000007B8F1000F0FD1029A6AB9CC0801F051
:101C7000070600EBC412404C14440122B24094F811
:101C80004C62324384F84C22B9F1000F48D13E46F1
:101C90000446DA0803F00709DFF8DC804FF0010E94
:101CA00004EBC2127F2C0EFA09FE4FEA46094244A9
:101CB00007D83F2B05D892F84C824EEA080E82F8DE
:101CC0004CE2B7EB460F02DA013CA6EB0C06B9F189
:101CD000000F00D02B44021B9942B2FA82F24FEA65
:101CE000521200D1E2B94F45D3DB9646DA08224FB3
:101CF00003F0070C012004EBC2123F2B00FA0CF09A
:101D00003A4406D87F2C04D892F84C72384382F8B3
:101D10004C0206B12B449942E8D1BEF1000FE5D048
:101D200005B0BDE8F08FF41A50455246B4FA84F479
:101D30004FEA541454D006F0070C01254FEAD60B95
:101D400005FA0CF54FEACB1B6DB23F2E0BEB020CE4
:101D50000AD87F2A08D8DFF820A0D4449CF84CA2E7
:101D600045EA0A0A8CF84CA207B172449042ECD1C1
:101D7000002CEAD067E700BF901401208C1B474677
:101D8000B4FA84F46409424514BF002504F0010547
:101D90000195002D7FF495AE06F007054FF001097F
:101DA0004FEAD60B09FA05F94FEACB1B4FFA89F92E
:101DB0007F2F0BEB07050AD83F2E08D8DFF8BC8031
:101DC000454495F84C8249EA080885F84C82BCF1F4
:101DD000000F00D05744BA42EAD1002CE8D072E696
:101DE000002CA8D02FE74FF00009E0E64FF0010AE1
:101DF000BEF1000F7FF43FAE002C7FF43CAECD0867
:101E000001F00706904202EBC5141C4D25444FF02B
:101E1000010404FA06F495F84C6244EA060485F8D5
:101E20004C424FF00004A64602947FF424AE0124F5
:101E3000019448E64FF0010B002C7FF45FAEBEF139
:101E4000000F7FF45BAEDD0803F00707994202EB59
:101E5000C5140A4D25444FF0010404FA07F495F81F
:101E60004C7244EA070485F84C424FF00004039496
:101E70007FF444AE4FF0010999E600BF90140120B1
:101E80002DE9F04F04464FF480620021B3482DED58
:101E9000028B99B024F0FCF90A21621CB04B12A805
:101EA00053F82430CDE90021AE4A182124F01AFE5F
:101EB00012A8FFF7A7FC092C65D8AB4B53F82430C8
:101EC000002B0E935FDD0F230125DFF8CCB2CDE9A7
:101ED0000853631E0F93002307930F9B082B00F2F8
:101EE0004385DFE813F06303520343031F03FB0240
:101EF000DC02CE028F008703049B0CF1010C9E458F
:101F000040F08D82DDF828A009EB0504DBF81832DB
:101F10009648A4B2DB689847844206D3DBF81832AF
:101F20009248DB689847013884B2DBF818328F4852
:101F30009B68ABF81C429847059B834207D3DBF8AC
:101F400018328A489B689847013883B20593059BED
:101F5000ABF81E32039B1B789A4507D1039B13F8FD
:101F600001AF0393BAF1000F40F01E82079B0133CB
:101F70000793099B0C330993089B01330893DDE910
:101F80000D239342A9DC754EB024002578488DF8C6
:101F900047400134294611F0D1FC642301220DF1A0
:101FA00047017448E4B214F03DFE294670488DF8AC
:101FB000475011F0C3FC012264230DF147016D4825
:101FC00014F030FE1023294669488DF8473011F08F
:101FD000B5FC642301220DF14701664814F022FE8E
:101FE0000121634811F0AAFC802231466423614834
:101FF000164414F017FEB82CC7D119B0BDEC028BF3
:10200000BDE8F08FF7EE006A9FED5B6AF6EE008A9E
:102010009FED5A7A9FED5A8A5A4BD3ED007A5A4A6D
:10202000C7FE867AC7FEE67AE7EE878A089B67EEE8
:10203000887A0D93BDEEE78AFDEEE88A18210092BA
:1020400012A8524A24F04EFDDBF81832BDF82420C5
:102050004648DB680A929847042800F2E982DBF8D8
:1020600018324248DB689847013883B2ABF81C321B
:10207000DBF818323D489B6898470A9B984206D87F
:10208000DBF8183239489B689847013883B2ABF8BF
:102090001E323F4B9DF848905A7893F800A05B6839
:1020A00006920C93B9F1000F00F0CE8012AB5546AA
:1020B000CA460393AAF12004E3B25E2B00F2C48067
:1020C000DBF818322948DB689847BBF81C322B44F0
:1020D0009842C0F2A082DBF8183224489B689847E7
:1020E000BBF81E32069A059313449842C0F29382BD
:1020F000002A00F04D8302FB04F4BBF81C92002D73
:1021000070D06FF0004E0C9BCDF82CA0A644144468
:10211000DDF814C003EB4E0E023B03EB44030493C3
:1021200049F24C234B449A460CF0070301264FEA30
:10213000DC02BCF13F0F06FA03F6164B0AEBC212A3
:102140003EF8024F76B298BF00271A4488BF012795
:102150006FEA0608494600232BE000BFDC16012089
:1021600070E10224C8DF022414E10224A816012031
:10217000C8160120B0160120000000000000C8426F
:1021800000001842AC830020C0DF0224D4DF022408
:102190006004002090840020901401207F2903D83F
:1021A00017B9107830431070013301320131AB425E
:1021B00011D004FA03F00004F0D47F29F4D8002FE2
:1021C000F2D1107801330132013108EA0000AB424C
:1021D00002F8010CEDD1049B0CF1010C7345A3D165
:1021E000DDF82CA009EB0504DBF81832B348A4B2E3
:1021F000DB689847844206D3DBF81832AF48DB68C7
:102200009847013884B2DBF81832AC489B68ABF8C9
:102210001C429847059B834207D3DBF81832A74836
:102220009B689847013883B20593059BABF81E3233
:10223000039B1B789A4507D1039B13F801AF0393C7
:10224000BAF1000F7FF436AF099A012549F28220D6
:102250009B49D70802F1080302F00702FF019540ED
:1022600007F15E0238446DB25A44084492F84C12A9
:10227000294382F84C1236220178013229435E2A22
:1022800000F8011BF8D14FEAD30E07994FEACE1E92
:1022900001EB410609990EF15E00B600584406F1C3
:1022A000170C90F84C422C4380F84C42CC0801F0BB
:1022B000070801203F290BEBC414014400FA08F081
:1022C00005D894F8AA8240EA080084F8AA02614579
:1022D000ECD10EF1360049F2AA21794C58447144F0
:1022E000214490F84C422C4380F84C420878013A43
:1022F0002843362A01F80109F8D107F136020F36D2
:102300005A4492F84C120D4382F84C52D90803F00B
:10231000070001223F2B0BEBC11103F1FF3302FA3F
:1023200000F204D891F88202024381F88222B3427B
:10233000ECD118EE103A002B00F37C8118EE903AA5
:10234000604A182112A824F0CDFBDBF818325B4854
:10235000DB689847622840F263816223ABF81C3245
:10236000DBF8183255489B6898470A9B834207D38D
:10237000DBF8183251489B689847013883B20A93BA
:10238000514B0A9A93F800A0ABF81E229DF8489092
:102390005A785B6806920B93B9F1000F3FF4E6ADF3
:1023A00012AB5546CA460393AAF12004E3B25E2B52
:1023B0003FF6DCADDBF818324048DB689847BBF8E5
:1023C0001C322B449842C0F22181DBF818323B4882
:1023D0009B689847BBF81E32069A059313449842AF
:1023E000C0F21481002A00F0D68102FB04F4BBF88D
:1023F0001C92002D3FF488AD6FF0004E0B9BCDF882
:1024000028A0A6441444DDF814C003EB4E0E023B92
:1024100003EB4403049349F24C234B449A460CF0DB
:10242000070301264FEADC02BCF13F0F06FA03F670
:10243000234B0AEBC2123EF8024F76B298BF002738
:102440001A4488BF01276FEA0608494600230BE0BB
:102450007F2903D817B91078304310700133013247
:1024600001319D423FF448AD04FA03F00004EFD47B
:102470007F29F3D8002FF1D1107808EA00001070FE
:10248000ECE7079B002B00F02E82012B00F0688206
:10249000022B0CBF0D4B0E4BD3ED007A26E2079BAF
:1024A000002B00F0FF81012B00F03E82022B0CBFBD
:1024B000084B094BD3ED007AF7E100BFA8160120C5
:1024C00090840020A8E00224600400205000002036
:1024D000200000204800002010000020079B002B57
:1024E00040F0D981C14BD3ED007AF7EE006A9FED41
:1024F000C06AF6EE008A9FEDBF7AC7FE867A9FED2E
:10250000BE8AC7FEE67ABD4BE7EE878A079A67EE7A
:10251000887A53F82220089BBDEEE78A0D93FDEEE2
:10252000E88A8BE5079B002B40F0A981B44BD3EDE3
:10253000007AF7EE006A9FEDAE6AF6EE008A9FED34
:10254000AD7AC7FE867A9FEDAC8AC7FEE67AAD4BC0
:10255000E7EE878A079A67EE887A53F82220089B6D
:10256000BDEEE78A0D93FDEEE88A67E5079B002B39
:1025700000F06481012B00F0E781A34B9FEDA37A6B
:10258000D3ED007A67EE877A5BE1079B002B00F0C2
:102590000D81012B00F0CC819D4B9FED9E7AD3EDF8
:1025A000007A77EEC77A77EEA77A02E1079B002BD5
:1025B00040F0F580984BD3ED007AF7EE006A9FED7E
:1025C0008C6AF6EE008A9FED8B7AC7FE867A9FEDC5
:1025D0008A8AC7FEE67A914BE7EE878A079A67EE0A
:1025E000887A53F82220089BBDEEE78A0D93FDEE12
:1025F000E88A23E5F7EE006A9FED7D6AF6EE008A31
:102600009FED7C7A9FED7C8A854B06E5039B4FF01E
:10261000000A1B78A0E4039B4FF0000A1B7809E630
:10262000DBF818327F48DB689847013883B295E6BB
:1026300004231BE5099A501C971D02F1070C951CF9
:10264000D41C111D531D00F00706012202FA06F6E4
:1026500076B2059605F00706ED0802FA06F64FEA8F
:10266000C51E75B2049504F00705E40802FA05F5E5
:10267000E6016CB2069401F00704C90802FA04F4FA
:10268000CD0103F00701DB0802FA01F14FFA84F8EB
:10269000DC014FFA81F907F00701FB0818EE107A08
:1026A00002FA01F1DB014FFA81FA0CF007010C93F9
:1026B00063468A40C108834207F1370C52B24FEAA1
:1026C000C1110B924FEAD3024FEAC2120392FFF4F8
:1026D00035AE49F283220C9B134411440EEB0207E2
:1026E00016441846039B1544144413441A464E4B93
:1026F0001A4419441F441E441D441C4418443723E3
:1027000003927F2B03F101032FD891F800E0059A83
:1027100042EA0E0E049A81F800E097F800E042EADF
:102720000E0E069A87F800E096F800E042EA0E0ED8
:10273000039A86F800E095F800E048EA0E0E85F866
:1027400000E094F800E049EA0E0E84F800E090F80A
:1027500000E04AEA0E0E80F800E092F800E00B9AE2
:1027600042EA0E0E039A82F800E0039A9C4501F1BA
:10277000010107F1010702F1010206F1010605F16D
:10278000010504F1010400F101000392B9D2D5E57D
:10279000BBF81C9226E5BBF81C92FFF7B5BB012BDA
:1027A0000CBF224B224BD3ED007A06E7214BD3ED31
:1027B000007AF7EE006A9FED0E6AF6EE008A9FED52
:1027C0000D7AC7FE867A9FED0C8AC7FEE67A1A4B11
:1027D000E7EE878A079A67EE887A53F82220089BEB
:1027E000BDEEE78A0D93FDEEE88A27E42C08002071
:1027F000000000000000C842000018424CEC022417
:102800003816002080EC0224B8830020E4388E3F84
:102810007C000020CDCCCC3D5C00002038EC0224B4
:10282000B8820020A81601209084002060000020BB
:1028300068000020F482002074EC02245F4BD3ED8A
:10284000007AF7EE006A9FED5E6AF6EE008A9FED71
:102850005D7AC7FE867A9FED5C8AC7FEE67A5B4B9F
:10286000E7EE878A079A67EE887A53F82220089B5A
:10287000BDEEE78A0D93FDEEE88AFFF7DFBB544B10
:10288000F7EE006A9FED537AD3ED007A77EEE67AA1
:1028900067EE877A4DE6012B0CBF4F4B4F4BD3EDC4
:1028A000007A22E64E4BD3ED007AF7EE006A9FEDF8
:1028B000446AF6EE008A9FED437AC7FE867A9FED62
:1028C000428AC7FEE67A474BE7EE878A079A67EEA9
:1028D000887A53F82220089BBDEEE78A0D93FDEE1F
:1028E000E88AFFF7ABBB404BD3ED007AF7EE006A06
:1028F0009FED336AF6EE008A9FED327AC7FE867A44
:102900009FED318AC7FEE67A384BE7EE878A079A51
:1029100067EE887A53F82220089BBDEEE78A0D9374
:10292000FDEEE88AFFF78ABB314BD3ED007ABCE7B6
:10293000304BDFED316AD3ED007A9FED307A77EEE0
:10294000E67A67EE877A34E72D4BF3EE046A9FED63
:102950002D7AD3ED007A77EEE67A67EE877A70E724
:10296000294BD3ED007AC1E7079B0BBB19462748DB
:1029700009F000F9F7EE006ADFED117AF6EE008A51
:102980009FED107AC0FE277A9FED0F8AC7FEE67A88
:102990001F4BE7EE878A079A67EE887A53F8222062
:1029A000089BBDEEE78A0D93FDEEE88AFFF746BB74
:1029B0000321164809F0DEF8DCE700BF040500201B
:1029C000000000000000C8420000184258EC022439
:1029D00014000020398EE33D280000203C00002038
:1029E000D014002064EC02244816002064EC022479
:1029F0002C000020640000209A99193F421A2440BC
:102A00004000002009F2943A44000020F0830020A6
:102A100044EC02245A482DE9F04F0468C3B0204624
:102A200016AB15AA24A9FEF799F94FF4806200218C
:102A3000544823F02DFCFF218022524823F028FC2B
:102A4000514B03F180011A6842F00F3243F8042B16
:102A50008B42F8D12B2C00F2E8854C4B53F82430F4
:102A60004B491AA8DFF83CA109684A4A009128217D
:102A700024F038F8DAF818320AF50670DB6898475F
:102A8000032800F2CF85DAF818320AF50670DB6801
:102A90009847013883B2DAF81822AAF81C323E4867
:102AA00093689847012800F2AC85DAF818323A4862
:102AB0009B689847013883B2AAF81E32374B9DF8BD
:102AC00068B05A7893F800905B6806920793BBF160
:102AD000000F00F0BE801AAB0293ABF12004E3B20A
:102AE0005E2B00F2B680DAF818322B48DB68984784
:102AF000BAF81C324B449842C0F25884DAF81832C3
:102B000025489B689847BAF81E32069A05931344E5
:102B10009842C0F24B84002A00F02C8602FB04F499
:102B2000BAF81C82B9F1000F61D06FF0004E079B1C
:102B3000CDF820B0A6441444059F03EB4E0E023B93
:102B400003EB4403039349F24C2343440493144B93
:102B50009B4607F007030126FA083F2F06FA03F603
:102B6000049B3EF8024F98BF002503EBC21288BFBA
:102B7000012576B241465A4400236FEA060C1FE055
:102B80005C160020DC1601205C170120F882002072
:102B9000D4140020CCDF0224A816012060040020F9
:102BA00090840020901401207F2904D81DB910784A
:102BB0000CEA000010700133013201314B4510D096
:102BC00004FA03F00004EFD47F29F4D8002DF2D1E9
:102BD000107801330132013130434B4502F8010CCA
:102BE000EED1039B01379E45B3D1DDF820B008EB51
:102BF0000904DAF818326448A4B2DB6898478442C2
:102C000006D3DAF818326048DB689847013884B296
:102C1000DAF818325C489B68AAF81C429847059B72
:102C2000834207D3DAF8183257489B68984701382F
:102C300083B20593059BAAF81E32029B1B789B4525
:102C400007D1029B13F801BF0293BBF1000F7FF481
:102C500044AF4E4B28214E4A1AA8D3ED007AFDEE20
:102C6000E77A17EE903A23F03DFF1AA8FDF742FBF2
:102C7000DAF81832A0EBC000DB6810F1800448BF1E
:102C800000F1810440489847C4F34F04844206D3BE
:102C9000DAF818323C48DB689847013884B2DAF831
:102CA000183239489B68AAF81C429847012800F25C
:102CB000B684DAF8183234489B689847013883B2F2
:102CC000AAF81E32334B9DF868B05A7893F80090FA
:102CD0005B6806920793BBF1000F00F0B4801AAB5B
:102CE0000293ABF12004E3B25E2B00F2AC80DAF881
:102CF00018322548DB689847BAF81C324B44984292
:102D0000C0F24F83DAF818321F489B689847BAF828
:102D10001E32069A059313449842C0F24283002A59
:102D200000F0248502FB04F4BAF81C82B9F1000F0C
:102D300057D06FF0004E079BCDF820B0A644144446
:102D4000059F03EB4E0E023B134A03EB4403049230
:102D5000039349F24C2343449B4607F007030126A3
:102D6000FA083F2F06FA03F6049B0BEBC2123EF85B
:102D7000024F76B298BF00251A4488BF01256FEA3A
:102D8000060C4146002315E0A8160120B48300205C
:102D9000C4E0022460040020908400207F2904D82D
:102DA0001DB910780CEA00001070013301320131B6
:102DB0004B4510D004FA03F00004EFD47F29F4D877
:102DC000002DF2D1107801330132013130434B45EF
:102DD00002F8010CEED1039B01377345BDD1DDF83C
:102DE00020B008EB0904DAF818325848A4B2DB68BE
:102DF0009847844206D3DAF818325448DB6898477B
:102E0000013884B2DAF8183250489B68AAF81C429C
:102E10009847059B834207D3DAF818324B489B68E2
:102E20009847013883B20593029B059A1B78AAF84C
:102E30001E229B4507D1029B13F801BF0293BBF1F1
:102E4000000F7FF44EAF424B42491B78424A002BA1
:102E5000DAF818323D481ABF0A466E256725DB6846
:102E6000049214BF4F2442249847A84206D8DAF8A7
:102E700018323648DB689847013885B2DAF81832DC
:102E800032489B68AAF81C529847012800F2C58373
:102E9000DAF818322D489B689847013883B2AAF8AF
:102EA0001E322E4B5A7893F800B05B680692079357
:102EB000203CE3B25E2B00F2A180DAF818322348FE
:102EC000DB689847BAF81C325B449842C0F296809F
:102ED000DAF818321D489B689847BAF81E72069AAD
:102EE0000597BB189842C0F28980002A00F03B8405
:102EF00002FB04F4BAF81C82BBF1000F53D06FF050
:102F0000004E079B49F24C29A6441444C14403EBEC
:102F10004E0E023B03EB44030293114B039307F065
:102F200007030126FA083F2F06FA03F6039B09EB75
:102F3000C2123EF8024F76B298BF00251A4488BFED
:102F400001256FEA060C4146002317E0A816012070
:102F500008050020DCDF0224E0DF022460040020FA
:102F6000908400207F2904D81DB910780CEA000055
:102F700010700133013201315B4510D004FA03F0C7
:102F80000004EFD47F29F4D8002DF2D1107801335A
:102F90000132013130435B4502F8010CEED1029B56
:102FA00001377345BBD108EB0B04DAF818329348AC
:102FB000A4B2DB689847844206D3DAF818328F4807
:102FC000DB689847013884B2DAF818328B489B687E
:102FD000AAF81C429847059B8342C0F0CD81DAF8DD
:102FE000183286489B689847049B013813F8014FB4
:102FF000AAF81E020493002C7FF45AAF804B0E21D6
:1030000015980CCBFEF7FAFA7E4B232116980CCBC1
:10301000FEF7F4FA7C4B1B682B2B00F2F5827B4900
:103020007B4A51F8231052F823200129A3EB020810
:103030001346B8BF0121C1F140021291520092FB28
:10304000F1F2062AB8BF0622099202321392099AB7
:103050004FF0000B0E93C1466E4B01320D9380333F
:103060000C9201220F930A92D94540F0A4810A9B49
:103070000C9A934215D809980F990D9A18447F2BF2
:1030800003F1010307D8147864F0030414700C787A
:1030900044F07F040C70834202F1010201F101014E
:1030A000EDD90E9B002B05DB1A465B4B1B68934248
:1030B00000F3208217AA0BF101030C2117A8039239
:1030C000564A119323F00EFD0398FDF713F9099B5F
:1030D00000EB4000B3EB40000A9B48BF013003EB1C
:1030E0006000013B984240F359810130DAF8183210
:1030F00084B24248DB689847844206D3DAF8183233
:103100003E48DB689847013884B2DAF818323B4809
:103110009B68AAF81C429847352800F23D81DAF8EE
:10312000183236489B689847013883B2AAF81E3295
:10313000039B1A783A4B0292597893F800805B68A7
:103140000B911093002A00F0C8804546029BA3F122
:103150002004E3B25E2B00F2C080DAF81832274870
:10316000DB689847BAF81C322B449842C0F20F81B2
:10317000DAF8183221489B689847BAF81E320B9A41
:10318000089313449842C0F202811346002A00F0CB
:10319000AD8102FB04F4BAF81C220492002D69D020
:1031A0006FF00048DDF820C0A0441C44109B03EBE6
:1031B0004808023B03EB4403059349F24C23D31820
:1031C0000793184B06930CF0070301264FEADC0225
:1031D000BCF13F0F06FA03F6079B38F8024F98BF81
:1031E000002703EBC212069B76B288BF01271A4460
:1031F00004996FEA060E002323E000BFA816012001
:1032000040040020600400205C160020D814002038
:1032100088150020DD19012018000020A8E00224F4
:1032200058040020908400207F2905D827B9D9456B
:10323000107811D0304310700133013201319D42BA
:1032400013D004FA03F00004EED47F29F4D8002F41
:10325000F2D1D9451078EDD001330EEA00000132E9
:1032600001319D4202F8010CEBD1059B0CF1010CE0
:103270009845A8D1049CDAF818322C44AE48DB6893
:10328000A4B29847844206D3DAF81832AA48DB6819
:103290009847013884B2DAF81832A7489B68AAF830
:1032A0001C429847089B834207D3DAF81832A24899
:1032B0009B689847013883B20893089BAAF81E328E
:1032C000039B1B78029A9A4207D1039B13F8012FA4
:1032D000CDE90223002A7FF439AF139B0A9A1A44DE
:1032E0000A920E9A01320E920C9A1A440C920D9A7E
:1032F0001A440D920F9A1A44DDE911B30F925B45FF
:103300003FF7B2AE8D4EB02400258D488DF85C405D
:103310000134294610F012FB6423012217A98948C1
:10332000E4B213F07FFC294685488DF85C5010F01C
:1033300005FB0122642317A9824813F073FC1023B4
:1033400029467F488DF85C3010F0F8FA642301229A
:1033500017A97C4813F066FC0121794810F0EEFAB9
:103360008022314664237748164413F05BFCB82C66
:10337000CAD143B0BDE8F08F049B13F8014F04930A
:10338000059BAAF81E32002C7FF492AD36E6039B13
:1033900000221B78029295E73523C7E60A9B581C4A
:1033A000A4E6029B4FF0000B1B7842E5029B4FF016
:1033B000000B1B7843E40A9A0C9B9A42C0F0AD8044
:1033C0007F2B00F235810D9A0999535C43F0040379
:1033D00053540A9B0C9A934200F0D0814FF0FF3671
:1033E000012E40F0A780099A32210A98164655000E
:1033F000034610183F290ED87F2B0CD8CA0801F0BD
:103400000707012403EBC212BC40524492F84C72ED
:103410003C4382F84C42099A013395420EDA9842B5
:10342000164401F1FF3101D1322925D03F294FEA5D
:103430004605E1D9099A01339542F0DB984201D162
:10344000322919D0099A9542D4DB01F007020124F0
:10345000CE089440F60164B2F2183F29524406D8CF
:103460007F2B04D892F84C52254382F84C520133FA
:103470009842F1D13229EFD10C9B7F2B4FF0000302
:103480000ED809990F980D9C425C42F040024254BC
:10349000625C62F003026254425C42F03F024254BA
:1034A0000A9A0C998A4251D87F2A00F216810D9906
:1034B00091F8802042F0400281F88020002B00F03B
:1034C0000F810F9A0D9912F8803C43F0040302F823
:1034D000803C91F8803043F07F0381F8803012F80F
:1034E000803C63F0070302F8803CDAE5BAF81C324E
:1034F0000493BFE6144B114664221B6802FB0133A0
:103500009B680393002B3FF4D5AD1B78002B3FF451
:10351000D1AD0BF101031193D6E57F2B3FF663AFDD
:103520000D9A01260999012E535C43F0040353546C
:103530003FF459AF0A9B82E0A8160120DC16012057
:10354000C8160120B0160120580000207F2A00F282
:10355000C0800D9991F8802042F0400281F88020CF
:10356000002BAED109993E230C9A0D464C003F2BFF
:103570000ED87F2A0CD8D90803F00706012002EBE9
:10358000C111B040514491F84C62304381F84C0273
:10359000099901328C420EDA013B0D443E2B02D1D7
:1035A0000A99914228D03F2B4FEA4504E1D9099965
:1035B00001328C42F0DB3E2B02D10A9991421BD0A2
:1035C00009998C42D3DB03F007010120DC08884015
:1035D000E40140B2A1183F2B514406D87F2A04D8F9
:1035E00091F84C52054381F84C523E2B02F10102F6
:1035F000F0D10A999142EDD10A9B7F2B7FF661AF02
:103600004FE50123FFF758BA7E224FF000080992D8
:10361000802213920122129219E501233FE4012333
:10362000FFF74EBB0323FFF736BA0123FFF718BAA3
:1036300013460C9A934200F0A3804FF0FF36099D89
:1036400032222F4668007F2B10D83F2A0ED8D1088F
:1036500002F0070C012403EBC11104FA0CF45144ED
:1036600091F84CC244EA0C0481F84C42A84233441D
:103670000EDA0C992F44013A994202D1322A3FF4D2
:10368000FBAE7F2B4FEA4700DFD9A8423344F0DB83
:103690000C99994202D1322A3FF4EEAEA842D2DB15
:1036A00002F007010120D5088840ED0140B2E91879
:1036B0003F2A514406D87F2B04D891F84C4204434A
:1036C00081F84C42322A3344F1D10C999942EED11F
:1036D000D2E6002B3FF446AFE3E4002B7FF4E1ACED
:1036E000099D3E210C9B2C46CA0801F007060120CB
:1036F0007F2B03EBC21200FA06F007D83F29524491
:1037000004D892F84C62304382F84C02B5EB440F77
:1037100003F1FF332C4406DD01393E29E4D10A9A36
:103720009A42E1D168E73E2903D10A9A9A423FF4CE
:1037300063AF01F007020120CC089040E40140B2E1
:10374000E2187F2B03F1FF33524406D83F2904D8F7
:1037500092F84C52054382F84C523E29F0D10A9A15
:103760009A42EDD148E7BAF81C821CE4BAF81C82F0
:10377000FFF737BBBAF81C82FFF739BA012380E69E
:103780007F2B3FF68EAC0D9A92F8803043F04003C9
:1037900082F8803095E600BF03464FF48062002136
:1037A0007E482DE9F04F7E4CA7B0099322F070FDC2
:1037B0002368002B01F3DE81FF218022774822F06D
:1037C00067FD764B03F5807180331A6842F00F3243
:1037D00043F8042B8B42F8D1A3F55378A3F59A74E0
:1037E000D8F818322046DB689847032840F29581C4
:1037F0000323A8F81C32D8F818326A489B68984707
:10380000012801F28081D8F8183266489B689847F1
:10381000013883B2A8F81E324C24634B0593634BE6
:1038200093F800A05A7855465B6807920893D8F839
:1038300018325C48DB689847B8F81C322B44984231
:10384000C0F29480D8F8183256489B689847B8F868
:103850001E12079A06918B189842C0F28780002AA0
:1038600001F0EC81A4F12003B8F81CA202FB03F3E1
:10387000002D4BD06FF0004949F24C2B8C469944F7
:103880001344089AD34402EB4909023A02EB43037A
:103890000393474B04930CF0070301274FEADC0224
:1038A000BCF13F0F07FA03F7049B0BEBC21239F888
:1038B000024F7FB298BF00261A4488BF01266FEAE4
:1038C000070E514600230BE07F2904D81EB910785B
:1038D0000EEA00001070013301320131AB4210D00A
:1038E00004FA03F00004EFD47F29F4D8002EF2D1BB
:1038F00010780133013201313843AB4202F8010C38
:10390000EED1039B0CF1010C9945C4D10AEB0504DF
:10391000D8F818322348A4B2DB689847844206D30B
:10392000D8F818321F48DB689847013884B2D8F8B5
:1039300018321C489B68A8F81C429847069B834293
:1039400007D3D8F8183217489B689847013883B2D4
:103950000693059B13F8014F0593069BA8F81E32AA
:1039600024B1A4F120035E2B7FF661AF114B1B78CD
:1039700003F0FF020492002B00F0D780DFF83CB088
:10398000DBF80030002B40F3D0800B4A4FF0290ABF
:103990002D262821531D002475E000BFDC160120D0
:1039A00058160020A8160120E4DF0224600400203D
:1039B00090840020BC820020841701203800002061
:1039C0008E4251D3881D82458CBF01200620451EA2
:1039D000022D039541F2268352F8805C043805F0ED
:1039E0000735471E42F8805C1568039705F0FE35E1
:1039F00015600D1D08EB050905F1800E05F1010CA0
:103A000099F84C72C64407F0070789F84C729EF883
:103A10004C92039F29F001098EF84C9227B3C444BD
:103A200005F1810702289CF84CE247440EF0070E8E
:103A30008CF84CE297F84CC22CF0010C87F84CC281
:103A400005F1020710D005F1820008EB070595F893
:103A50004C72404407F0070785F84C7290F84C52BE
:103A600025F0010580F84C520134DBF800000731E5
:103A70000736A04202F107020AF1070A03F1070321
:103A800053DD082C51D06B480068A04298D08E427C
:103A900001F20A8013F8800C20F0080003F8800C73
:103AA00001F0C68208467F2804D8634FC55D25F023
:103AB0000805C5550138B042F5D100201D788E4269
:103AC00025F001051D7013F8805C05F0070503F86B
:103AD000805C81F0338013F8055C25F0010503F864
:103AE000055C68B95548564F3F1A18463D187F2D5A
:103AF00003D8057825F00105057001309042F5D115
:103B000013F9850C00F0070003F8850C13F8050C79
:103B100020F0010003F8050CA6E7D8F8183220467B
:103B2000DB689847013883B263E6D8F81832454815
:103B3000DB689847672840F2DD876723A8F81C32C6
:103B4000D8F818323F489B689847012800F2F3875D
:103B5000D8F818323B489B689847013883B2099AD5
:103B6000A8F81E32384B53F82220384B92F800B098
:103B7000597893F800905B68039207910993BBF121
:103B8000000F00F0BB804D46ABF12004E3B25E2B8A
:103B900000F2B480D8F818322A48DB689847B8F8A1
:103BA0001C322B449842C0F26284D8F8183225485F
:103BB0009B689847B8F81E32079A069313449842B8
:103BC000C0F25584002A01F0418002FB04F4B8F8E9
:103BD0001CA2002D60D06FF00049099BCDF820B0E9
:103BE000A1441444DDF818C003EB4909023B134A11
:103BF00003EB44030592049349F24C2353449B4640
:103C00000CF0070301274FEADC02BCF13F0F07FA73
:103C100003F7059B0BEBC21239F8024F7FB298BF36
:103C200000261A4488BF01266FEA070E514600237A
:103C30001AE000BFFC040020DC1601209084002064
:103C4000346DFFFFA816012024EC0224600400203C
:103C50007F2904D81EB910780EEA000010700133D5
:103C6000013201319D4210D004FA03F00004EFD478
:103C70007F29F4D8002EF2D11078013301320131BE
:103C800038439D4202F8010CEED1049B0CF1010C6B
:103C90004B45B5D1DDF820B00AEB0504D8F8183251
:103CA0006748A4B2DB689847844206D3D8F8183234
:103CB0006348DB689847013884B2D8F81832604806
:103CC0009B68A8F81C429847069B834207D3D8F804
:103CD00018325B489B689847013883B20693069B6D
:103CE000A8F81E32039B1B785B4507D1039B13F892
:103CF00001BF0393BBF1000F7FF446AF514B1B781C
:103D0000002B00F00F87504AF6EE007A4F4B1CA8AC
:103D10009FED4F7A28211B68D2ED006A4D4AE6EEEE
:103D2000877A1290FDEEE77ACDED007A22F0DAFE86
:103D3000D8F818324248DB689847032800F2EF862B
:103D4000D8F818323E48DB689847013883B2D8F873
:103D50001822A8F81C323A48936898470D2800F2B8
:103D6000DB86D8F8183236489B689847013883B20A
:103D7000A8F81E32384B9DF870B05A7893F800902E
:103D80005B6807920993BBF1000F00F0BF80129BA4
:103D90004D460393ABF12004E3B25E2B00F2B680F4
:103DA000D8F818322648DB689847B8F81C322B44FC
:103DB0009842C0F25783D8F8183221489B68984738
:103DC000B8F81E32079A069313449842C0F24A8309
:103DD000002A00F02F8702FB04F4B8F81CA2002D83
:103DE00062D06FF0004E099BCDF820B0A644144479
:103DF000DDF818C003EB4E0E023B184A03EB4403F8
:103E00000592049349F24C2353449B460CF007035C
:103E100001264FEADC02BCF13F0F06FA03F6059BD0
:103E20000BEBC2123EF8024F76B298BF00271A443D
:103E300088BF01276FEA0609514600231BE000BF37
:103E4000A8160120BC820020080000205400002099
:103E50000000C84210E00224580400209084002092
:103E60007F2903D817B9107830431070013301321D
:103E70000131AB4211D004FA03F00004F0D47F29E1
:103E8000F4D8002FF2D1107801330132013109EA60
:103E90000000AB4202F8010CEDD1049B0CF1010CC7
:103EA0007345B3D1DDF820B00AEB0504D8F8183219
:103EB0005E48A4B2DB689847844206D3D8F818322B
:103EC0005A48DB689847013884B2D8F81832574806
:103ED0009B68A8F81C429847069B834207D3D8F8F2
:103EE000183252489B689847013883B20693069B64
:103EF000A8F81E32039B1B789B4507D1039B13F840
:103F000001BF0393BBF1000F7FF444AF484B1C6823
:103F1000012C00F02986474B474A15931B681492E1
:103F2000D45CA4F10104B4FA84F46409D8F818321A
:103F30003E48DB689847682800F2EB85D8F81832CD
:103F40003A48DB689847013883B2A8F81C32D8F8A1
:103F5000183236489B6898470D2800F2D785D8F864
:103F6000183232489B689847013883B2002C334A94
:103F7000A8F81E32324B1ABF134656245424059318
:103F8000304B5A7893F800B05B6807920893203C56
:103F9000E3B25E2B00F2A680D8F818322348DB6823
:103FA0009847B8F81C325B449842C0F29B80D8F81E
:103FB00018321E489B689847B8F81E72079A0697F1
:103FC000BB189842C0F28E80002A00F03B8602FBAC
:103FD00004F4B8F81C92BBF1000F58D06FF0004CFD
:103FE000089B49F24C2AA4441444CA4403EB4C0CE9
:103FF000023B03EB44030393134B049307F00703C3
:104000000125FA083F2F05FA03F5049B0AEBC212BB
:104010003CF8024F6DB298BF00261A4488BF0126B3
:104020006FEA050E494600231BE000BFA8160120D9
:10403000E88300204C160020CC14002000E002246D
:1040400004E0022458040020908400207F2903D833
:1040500016B91078284310700133013201315B45E5
:1040600011D004FA03F00004F0D47F29F4D8002E14
:10407000F2D110780133013201310EEA00005B45C4
:1040800002F8010CEDD1039B01376345B6D109EB72
:104090000B04D8F818328448A4B2DB6898478442ED
:1040A00006D3D8F818328048DB689847013884B2C4
:1040B000D8F818327C489B68A8F81C429847069BA1
:1040C0008342C0F0B681D8F8183277489B68984789
:1040D000059B013813F8014FA8F81E020593002C28
:1040E0007FF455AF714B1A68002A40F3B181704AD2
:1040F000D2ED006A93ED007AF8EEE66AB8EEC77A80
:10410000C6EE877A1E23DFED6B6A0D93C7FEA67A93
:104110001723B7EE007A0A931823C7FEC77AB0EECA
:10412000677A0F930023BEEECD7A0C9317EE103A08
:104130008DED177A03F13B023D33169218930C9ADA
:10414000149B92469B5CD9B2032B159B0E91D3F81E
:1041500000B040F29181934500F0CE830123139388
:1041600002230E93544B0C9A53F82230002B04DB9D
:10417000524A12689342C0F24D85514B0093282158
:104180000C9B504A013312980C9322F0ABFCD8F8E8
:1041900018324548DB689847BDF82830042810934A
:1041A00000F27681D8F818323F48DB68984701382A
:1041B00083B2A8F81C32D8F818323B489B6898475D
:1041C000109B834206D3D8F8183237489B6898472B
:1041D000013883B2A8F81E323B4B9DF87020597805
:1041E00093F800905B6803920B911193002A00F002
:1041F000C880129B4D460593039BA3F12004E3B2B4
:104200005E2B00F2BE80D8F818322748DB6898474A
:10421000B8F81C322B449842C0F20681D8F8183204
:1042200021489B689847B8F81E320B9A09931344AB
:104230009842C0F2F9801346002A00F02B8102FB5D
:1042400004F4B8F81C220492002D67D06FF00049E6
:10425000DDF824C0A1441C44119B03EB4909023B37
:1042600003EB4403069349F24C23D3180793174BEF
:1042700008930CF0070301264FEADC02BCF13F0F64
:1042800006FA03F6079B39F8024F98BF002703EBA5
:10429000C212089B76B288BF01271A4404996FEABC
:1042A000060E002321E000BFA8160120E0830020B5
:1042B000E4830020000000001808002018000020FF
:1042C000F0DF022428E0022458040020908400201B
:1042D0007F2905D827B9D345107811D03043107005
:1042E000013301320131AB4213D004FA03F0000470
:1042F000EED47F29F4D8002FF2D1D3451078EDD039
:1043000001330EEA000001320131AB4202F8010C28
:10431000EBD1069B0CF1010C4B45AAD1049CD8F8BB
:1043200018322C449D48DB68A4B29847844206D3D7
:10433000D8F818329948DB689847013884B2D8F821
:10434000183296489B68A8F81C429847099B8342FC
:1043500007D3D8F8183291489B689847013883B240
:104360000993099BA8F81E32059B1B78039A934278
:1043700007D1059B13F8012F03920593002A7FF4C0
:104380003BAF0E9B032B00F08980012B00F0758161
:10439000022B00F0A1840F9B0A330F930A9B0A3370
:1043A0000A930D9B0A330D930C9B042B7FF4C7AE2D
:1043B0007B4FB0240DF16F0600257A488DF86F40D1
:1043C000013429460FF0BAFA6423012231467648B7
:1043D000E4B212F027FC294672488DF86F500FF0B6
:1043E000ADFA0122642331466F4812F01BFC102302
:1043F00029466C488DF86F300FF0A0FA6423012233
:104400003146694812F00EFC012166480FF096FA19
:104410008022394664236448174412F003FCB82C08
:10442000CAD127B0BDE8F08F059B00221B7803920C
:104430009CE7059B13F8014F0593069BA8F81E32D5
:10444000002C7FF4A4AD594B1A68002A3FF74FAEF9
:10445000574B9FED587AD3ED007AF8EEE77A67EE86
:10446000877A4FE6039B4FF0000B1B7844E5039BD4
:104470004FF0000B1B7837E40C9B9B4500F03E820D
:10448000012313930E9B002B7FF46CAE4A4B75E611
:1044900004238EE6B8F81C3204933FE7D8F81832AC
:1044A0003E48DB689847642800F2B283D8F8183297
:1044B0003A48DB689847013883B2A8F81C32D8F82C
:1044C000183236489B689847109B834207D3D8F828
:1044D000183232489B689847013883B21093109B7A
:1044E0006D24A8F81E32354B93F800905A785B681B
:1044F0004D4609920B93324B0793D8F81832274850
:10450000DB689847B8F81C322B449842FFF643AF5B
:10451000D8F8183221489B689847B8F81E12099AB3
:1045200008918B189842FFF636AF002A00F0B0834E
:10453000A4F12003B8F81C0202FB03F30390002D42
:1045400068D06FF000498C46994413440B9A02EBF3
:104550004909023A02EB4303049349F24C23C3187E
:104560000593184B06930CF0070301264FEADC0273
:10457000BCF13F0F06FA03F6059B39F8024F98BFCE
:10458000002703EBC212069B76B288BF01271A44AC
:1045900003996FEA060E002323E000BFA81601204E
:1045A000DC160120C8160120B0160120E08300208F
:1045B000E4830020DC693A35ECDF02245804002053
:1045C000F8DF0224908400207F2905D827B9D3453D
:1045D000107811D0304310700133013201319D4207
:1045E00013D004FA03F00004EED47F29F4D8002F8E
:1045F000F2D1D3451078EDD001330EEA000001323C
:1046000001319D4202F8010CEBD1049B0CF1010C2D
:104610009945A8D1039CD8F818322C44B448DB68DB
:10462000A4B29847844206D3D8F81832B048DB6861
:104630009847013884B2D8F81832AD489B68A8F87A
:104640001C429847089B834207D3D8F81832A848E1
:104650009B689847013883B20893089BA8F81E32DC
:10466000079B13F8014F0793002C3FF494AEA4F17D
:1046700020035E2B7FF641AF8DE6139B002B00F0ED
:1046800065840A9BDF0803F007000E9BFF0183404F
:1046900007F17C0258B249F2862342443B446FEA58
:1046A000000E92F84C12014382F84C123A229149C2
:1046B0000B441C78013204437C2A03F8014BF8D1E7
:1046C0000D9E01234FEAD60906F007044FEAC919E7
:1046D000A34009F17C044FFA83FC0A9B44449E42A8
:1046E0008CBF4FF0010A4FF0FF3A94F84C524CEA5D
:1046F000050584F84C52DD0803F0070B01243F2B1D
:1047000008EBC515534404FA0BF405D895F8C8B264
:1047100044EA0B0485F8C8429E42ECD109F13A0400
:1047200049F2C82344444B4494F84C520B444CEA9D
:10473000050584F84C521C78013A4CEA04043A2AE4
:1047400003F80149F7D10D9B0A9A9342C0F0828287
:10475000139B4FF0FF32002B40F07D820D9B07F141
:104760003A000A9E404490F84C420EEA040E80F84B
:104770004CE2D80803F0070501243F2B08EBC010DA
:10478000134404FA05F405D890F8865225EA040487
:1047900080F886429E42ECD1179B002B7FF7FBAD41
:1047A0000A9B0F9C981CDA1C5E1D03F1060C1D1D54
:1047B000C708012304F0070E00F0070402F0070009
:1047C00003FA0EFE03FA00F003FA04F44FFA8EFE29
:1047D0004FFA80FA05F007004FFA84F903FA00F067
:1047E000D408F2084FFA80FB06F007000F9EED0890
:1047F00003FA00F0F60840B205900CF00700834081
:104800005BB2049349F2872303EBC7104FEADC073E
:1048100003EBC212084403EBC51503EBC4140A44AE
:1048200003EBC7170D4403EBC6136FEA0E060C44E7
:104830000F4409966FEA09061944059B06966FEA2C
:104840000A06039208966FEA0B060796DE43049B5E
:104850000E963B26DB430B9326E00B78099A134018
:10486000069A0B7003781340089A0370237813405C
:10487000079A23702B781340039A2B7013780E9AA3
:104880001340039A13700B9A3B7813403B70039BC1
:104890000136013701350133013401300131039311
:1048A000169B9E423FF677AD0F9B9C45EFD37F2E24
:1048B000EDD8139B002BD0D00B78039A4EEA03035C
:1048C0000B70037849EA0303037023784AEA030371
:1048D00023702B784BEA03032B701378059A13434C
:1048E000039A1370049A3B7813433B70CFE700BFE1
:1048F000A81601209084002002230E930A99012318
:10490000481ECC1C0D1D4E1D8F1D8A1C00F007017A
:1049100003FA01F14FFA81FC0A9901F0070B0F9994
:10492000CDF810C001F0070103FA0BFB03FA01F107
:104930004FFA8BFB4FFA81FC02F00701D20803FA11
:1049400001F1CDF844C04FEAC21C4AB204F007019D
:1049500003FA01F10692E2084CB205F007014FEAB2
:10496000C21E03FA01F10794EA084CB206F00701EF
:10497000D50103FA01F10894F2084CB207F00701DF
:10498000D60103FA01F1FA0809944FB20A99D40149
:104990000B970D9F059407F007029340C208D201C0
:1049A0005BB20392CA08109301F10803D1010F9A78
:1049B00083424FEAD2024FEAC2144FEAD7024FEACB
:1049C000C2174FEAD30213974FEAC212C0F0BC835A
:1049D00049F24C2301EB03090599F0181C441944D2
:1049E0001D44039E0EEB030705911A44AA499C44FB
:1049F000199001EB040E13984C19199D1844334477
:104A000013948944059C0B448C440F444D190C1994
:104A100008441144A14A03913244139ECDF84CA09E
:104A2000DDF844A0059213F8012F04990A43069972
:104A30001A7019F8012F4BEA020289F800201EF8BB
:104A4000012F4AEA02028EF800201CF8012F0A43C7
:104A500007998CF8002017F8012F0A4308993A703B
:104A600016F8012F0A430999327015F8012F0A43ED
:104A70000B992A7014F8012F0A431099227010F82C
:104A8000012F0A430399027011F8012F4BEA020229
:104A900003910A70059A9A42C5D10023DDF84CA013
:104AA000DDF830B01393EDE413F8800C20F008002B
:104AB00003F8800C13F8850C20F0080003F8850C2F
:104AC00013F8840C20F0080003F8840C13F8830C0E
:104AD00020F0080003F8830C13F8820C20F0080083
:104AE00003F8820C13F8810C20F0080003F8810C05
:104AF000FEF7E3BFD8F818326948DB6898470138F9
:104B000083B2FFF71BB80123FEF784BE0D23FFF726
:104B10002DBA6823FFF719BA0D23FFF729B903232C
:104B2000FFF715B95F4B1CAA93E80300129282E8C5
:104B30000300FFF7FDB80123FFF711B813F8055C78
:104B400025F0010503F8055C00287EF4D9AF304656
:104B50007F2804D8544F3D5C25F001053D540138B1
:104B60008842F5D1FEF7CCBF504B1593504B1493B0
:104B7000FFF7DCB94F4B08214F480DF16F064F4F3F
:104B80000CCBFCF73BFD23684D4A08211CA8B02440
:104B900021F0A8FF4B4B20211CA80CCBFCF72EFDCD
:104BA000002549488DF86F40013429460EF0C6FEB5
:104BB0006423012231464548E4B212F033F8294615
:104BC00041488DF86F500EF0B9FE01226423314642
:104BD0003E4812F027F8102329463B488DF86F30E5
:104BE0000EF0ACFE642301223146384812F01AF868
:104BF000012135480EF0A2FE802239466423334855
:104C0000174412F00FF8B82CCAD127B0BDE8F08FC6
:104C1000642352E42E4A6421126801FB03239B683B
:104C2000002B3FF4AAAA19782A4A002908BF134684
:104C3000FFF7A4BAB8F81CA2FFF736B9B8F81CA25F
:104C4000FEF764BEB8F81C92FFF721BAB8F81CA2B0
:104C5000FFF722B8012207F13A040D9B0A9E444453
:104C600094F84C52284384F84C02DC0803F0070502
:104C700001203F2B08EBC414134400FA05F004D8BC
:104C800094F88652284384F886029E42EDD183E54B
:104C9000B8F81C320393BDE4908400205A17012019
:104CA000A816012020E002245C1701204C160020E9
:104CB000CC1400204004002008E00224DC1601206F
:104CC000A8E0022448040020C8160120B0160120E4
:104CD00058000020F0DF0224139B0A9A002B00F0FA
:104CE000AA81D30802F00701012249F28620DB01E4
:104CF0003A278A4003F17C01184452B241446FEADA
:104D0000020991F84C42144381F84C42C7490844C7
:104D10000478013714437C2F00F8014BF8D10D9D26
:104D200001204FEAD50C05F007044FEACC1CA04047
:104D30000CF17C044FFA80FE0A98444485428CBFF3
:104D40004FF0010A4FF0FF3A94F84C524EEA050535
:104D500084F84C52C5083F2800F00706504408EB81
:104D6000C51506D80124B44095F8C862344385F8C7
:104D7000C8420D9C8442EDD10CF13A0449F2C8209E
:104D80004444604494F84C5208444EEA050584F8C3
:104D90004C520478013F4EEA04043A2F00F80149CE
:104DA000F7D10D980A9CA04201D2012005E013988A
:104DB000002800F0CF814FF0FF303A3308EB0304B6
:104DC0000D9B94F84C522A4384F84C22DC083F2B6C
:104DD00003F00705034408EBC41406D80122AA40D7
:104DE00094F886522A4384F886220A9A9A42EDD190
:104DF0001898169A0A9B904203F1060CFFF4CBAA6E
:104E0000981CDA1C0F9C5E1D1D1DC708012304F0B1
:104E1000070E00F0070402F0070003FA0EFE03FA83
:104E200000F003FA04F44FFA8EFE4FFA80FA05F010
:104E300007004FFA84F903FA00F0D408F2084FFA99
:104E400080FB06F007000F9EED0803FA00F0F6085D
:104E500040B205900CF00700834017985BB20493B2
:104E600049F28723034403EBC7104FEADC0703EB47
:104E7000C212084403EBC51503EBC4140A4403EB48
:104E8000C7170D4403EBC6136FEA0E060C440F441C
:104E90000B966FEA09061944059B0E966FEA0A06FF
:104EA000039209966FEA0B060896DE43049B079669
:104EB000DB43169E069326E00B780B9A13400E9A5E
:104EC0000B7003781340099A037023781340089AF3
:104ED00023702B781340039A2B701378079A134092
:104EE000039A1370069A3B7813403B70039B01367C
:104EF0000137013501330134013001310393189B2F
:104F00009E423FF648AA0F9B9C45EFD37F2EEDD8DB
:104F1000139B002BD0D00B78039A4EEA03030B703F
:104F2000037849EA0303037023784AEA03032370F2
:104F30002B784BEA03032B701378059A1343039ADB
:104F40001370049A3B7813433B70CFE70A9BDF084A
:104F500003F007000E9BFF01834007F17C0258B26B
:104F600049F2862342443B446FEA000E92F84C1209
:104F700021EA000182F84C123A222C490B4418789D
:104F800001320EEA00007C2A03F8010BF7D10D9DD7
:104F900001234FEAD50C05F00700AA464FEACC1CC6
:104FA00003FA00F60A9B0CF17C00F6439D428CBF8D
:104FB0004FF001094FF0FF39404476B290F84C426F
:104FC000344080F84C42DD0803F0070401203F2BF9
:104FD00008EBC5154B4400FA04F005D895F8C84213
:104FE00024EA000085F8C8029A45ECD10CF13A0099
:104FF00049F2C8234044634490F84C420B44344087
:1050000080F84C421878013A30403A2A03F80109F6
:10501000F8D10D9B0A9A934234BF01224FF0FF3220
:10502000FFF79DBB0D46FEF7E5BC00BF9084002056
:105030000498FEF743BDD30802F00701012249F2AC
:105040008620DB018A4003F17C01184452B24144BE
:105050006FEA020991F84C4224EA020481F84C42BA
:105060003E490A183A201478013009EA04047C28E1
:1050700002F8014BF7D10D9D0122EF0805F007045E
:10508000FF0102FA04FC0A9A07F17C046FEA0C0C97
:1050900095428CBF4FF0010E4FF0FF3E44444FFA53
:1050A0008CFC94F84C520CEA050584F84C52D40858
:1050B0003F2A02F00706724408EBC41408D8012501
:1050C00005FA06F694F8C85225EA060584F8C8528F
:1050D0000D9C9442EBD107F13A0449F2C8224444B2
:1050E0003A4494F84C520A440CEA050584F84C52B0
:1050F000147801380CEA04043A2802F80149F7D17F
:105100000D9A0A98824225D201203A3308EB030215
:105110000D9B92F84C4209EA040982F84C92DA0895
:105120003F2B03F00705034408EBC21208D8012403
:1051300004FA05F592F8864224EA050482F88642CC
:105140000A9A9A42EBD153E60023DDF830B013936C
:10515000FFF798B94FF0FF30D7E700BF90840020E9
:1051600010B50B4682B00446002118308DF8073088
:105170000EF0E4FB642301220DF10701204611F03B
:1051800051FD02B010BD00BF2DE9F04F83B05C1A95
:105190000C9D002C9DF834E0A5EB0207B8BF6442DB
:1051A000002FB8BF7F428B428CBF4FF001094FF0F8
:1051B000FF399542A4EB070C4BD87F2B00F292806D
:1051C0003F2D00F28F804FF0FF3605F00708009664
:1051D000EE0803EBC6160644BEF1000F48D14FF0AF
:1051E000010E8B420EFA08F896F834E02EEA080E0B
:1051F00086F834E001D1954228D07E4201974FEAEB
:10520000D20E7F2902F0070A4FEA4C0801EBCE1EAE
:105210000CD83F2A864409D84FF0010B0BFA0AFB41
:105220009EF834A02AEA0B0A8EF834A0B6EB4C0F95
:1052300003DA019F4944ACEB070C444502DD009FB3
:10524000A4443A448B42DAD19542D8D103B0BDE8A8
:10525000F08F01267F2B00964BD83F2D49D8EE08C2
:1052600005F0070803EBC6160644BEF1000FB6D0E2
:105270004FF0010E8B420EFA08FE96F834804EEA8B
:10528000080E86F834E001D19542DFD07E420197C6
:105290004FEAD20E7F2902F0070A4FEA4C0801EBD1
:1052A000CE1E0CD83F2A864409D84FF0010B0BFACA
:1052B0000AFA9EF834B04AEA0B0A8EF834A0B6EB2C
:1052C0004C0F03DA019F4944ACEB070C444502DD67
:1052D000009FA4443A449942DAD19542D8D103B010
:1052E000BDE8F08F954201D18B42AFD04FF0FF3631
:1052F00000967E420197BEF1000FC9D17FE700BF43
:1053000070B50446ADF5AB5D41F2585204F500515D
:1053100001AB04F5AB5602A8D1F8B81A19603146B2
:1053200020F08EFFD4E900010FF0F0FE054613F0E7
:1053300045F948B941F25852291D304620F070FF16
:1053400078B90DF5AB5D70BD41F25C51284612F0A5
:10535000BDFE41F25852291D304620F061FF002861
:10536000EFD0616841F25C5520684A190FF0CAFE1F
:105370000DF5AB532A465B1BD4E900010FF0BEFECE
:105380000DF5AB5D70BD00BFF8B51F4D41F258572C
:105390001E4C1F4E284606F0A5F922461D492846F8
:1053A00020F05CF930460AF0FFFC22461A493046EC
:1053B00020F054F92246194900261948043520F0F6
:1053C0004DF922461749184820F048F92246174956
:1053D000174820F043F92246164C1749174820F089
:1053E0003DF93A46314604F10800C4E9005620F080
:1053F0004FFF04F5AB5004F500543A46314620F017
:1054000047FFC4F8B86AF8BD90840020000000206F
:10541000F0830020B1B600249DC00024810A00243E
:10542000C0820020790A0024ACCC60C17D0A00242F
:10543000249F5FC1141B0120290B0024000000C021
:105440002DE9F04F2DED088BADF5BA5D002230212E
:10545000C34885B0C34E06F059F93021C04805F065
:105460002FFBBF4805F036FB86ED000AF1EE103A3F
:1054700043F08073E1EE103ABB484FF480620021A4
:10548000C36B00240025B7EE008A43F08073C3632A
:10549000B64820F0FDFEB64B1321B6480CCBFCF706
:1054A000ADF839216220FBF74FFEB34A0123B34820
:1054B00006CAFBF7B9FEFBF773FE40F6AC51A848ED
:1054C00005F0A6FA96ED000AAD480BF071FC41F626
:1054D00054020021AB4820F0DBFE41F644120021CB
:1054E000A94820F0D5FE41F24C720021A74820F0D7
:1054F000CFFE41F238620021A54820F0C9FE4FF4EA
:1055000061720021A34820F0C3FE4FF40B6200211A
:10551000A14820F0BDFEA14AA148114602F6683319
:10552000C2F8644BC2F8604BC2F85C4BC2F8584BEF
:10553000C2F8544BC2F8504B9A4A1A6001F66C33C9
:10554000994A1D6001F5376321461A60974A20F099
:105550009FFE974B96ED000A96481C601FF048FE90
:1055600096ED000A94481FF017F896ED000A93484C
:105570001FF0ACFB924896ED000A1FF077FAD6EDCB
:10558000008A9FED900A904C80EE280AC4ED048AB0
:105590006560256020F0E8FA9FED8C7A78EE407A1D
:1055A00087EE280AC4ED027A20F0DEFA38EE400ACF
:1055B00084ED030AFBF7BAFA854B864A19689142D3
:1055C00003D15A68012A02F08F830DF5EA63049330
:1055D000814B0F93049B41F2585200217EA8A3F502
:1055E000AB6520F055FE7D480723294641F258520D
:1055F00000F5AB542B6002950546083020F020FEE4
:1056000041F258520299204620F01AFE00212868E3
:1056100069600FF07BFD03685A1E012A02F258836D
:105620006E4A011D204602F500521292C2F8B83AA5
:1056300041F2585220F004FE6949D1F86035072B39
:105640000FD0204641F258520C46A1F6F87120F0D6
:10565000F7FD0123129AA4F58050C2F8B83AFFF77B
:105660004FFEFBF7EBFE02220421454806F088FBC3
:1056700001220421424806F083FB02220521404812
:1056800006F07EFB012205213D4806F079FB9FEDE7
:10569000550A3348002405F071FA534B9FED530A25
:1056A000A3461860A0462E4805F068FA504B9FEDBF
:1056B000518A1860504BF0EE48AAB0EE48AA18681C
:1056C000F0EE489AFBF730FC01212548B0EE489AED
:1056D00005F0BAFA224805F001FA48492048F0EEF0
:1056E000488A05F0E9F9464B01211D481C7005F078
:1056F0009DFA1B48502105F08BF921461848159456
:1057000005F0A2FA12F0A8FD3E4A154B11924FF097
:10571000FF3203F510491E901094189408940C94CD
:1057200017940B940E94029413940D92079412F014
:1057300093FD354A0646137833B91E9BC31AB3F559
:105740007A7F01D901231370054A00232F49D2F82B
:1057500084200C68177F92F840502D4A0B6059E066
:10576000908400203000002000EF00E0DC160120D3
:105770004804002058E002245004002060E0022485
:10578000F083002044170020982F0020DC480020E0
:105790002860002060760020E47900204477002013
:1057A000081861C13D0A573F3333B33E00EE020093
:1057B00044160020C0820020ACCC60C1249F5FC191
:1057C000000000C07C59C4C428170020DB6F75C6D8
:1057D00000001090564D473118000020141B012086
:1057E000142B01208FC2753D241700203333B33EA4
:1057F00020170020000000005C16002041860024D5
:105800000805002030E00224C91400200C05002007
:1058100010050020D2F800A01360A7F1FF02AF4BE3
:10582000B2FA82F21B7852091C92A5F1FF02B2FA79
:1058300082F252091B92002B40F0788105EA07039F
:10584000FF2B00F0E681FF3F18BF0127FF3D18BF87
:10585000012517EA080800F0D281079B002B40F0D1
:10586000CD81002D00F0CA819D4B1B682B2B17D8D2
:105870009C4A52F823009C4A52F823201B1A012A02
:10588000B8BF0122013304D59B18FDD49A4202DC33
:105890009B1A9A42FCDD1844914B1860FBF744FBBD
:1058A000BBF1000F00F0A0818D4B1B682B2B00F289
:1058B0009B818C4A52F823008B4A52F823201B1AF2
:1058C000012AB8BF0122013B04D59B18FDD49A429E
:1058D00002DC9B1A9A42FCDD1844814B1860FBF7EE
:1058E00023FB002307937D4B1B7803F0FF01002B64
:1058F00040F0C1807D4B1B78002B40F07F830D9BD7
:10590000DD43ED0F002C40F09B81BAF1000F04DD68
:105910000123724A137000230293139BB34240F297
:105920006681002D00F063810D9E7148314606F0BE
:105930000DFA04466E48214606F0E2F84FF4806204
:10594000054600216B4820F0A3FC6B4B2846022142
:105950000CCBFBF753FE331F012B40F2FF830D9A54
:10596000B7EE007A654B99F9C614960003EB8203F3
:10597000DFED636AD3ED007A41F0100389F8C63495
:10598000C7FEA67A5F4BC7FEC77A1A6842F010328C
:1059900043F8042B5C4A9A42F7D199F8C63561F076
:1059A0000F0143F0010389F8C61489F8C63599F848
:1059B000523543F0010389F85235FF2389F8463503
:1059C00002F2011313F8012D42F001021A704F4A3E
:1059D0009A42F7D199F95234FF229FED4D7A63F044
:1059E0000F0389F8D22467EE877A89F8523499F840
:1059F0005235FDEEE77A43F0010389F8523517EE90
:105A0000903A002B15DD434A0733072102F180004D
:105A10007F294FF0FF0501F1010104D8147864F0EB
:105A20001F04147005708B4202F1010200F10100A5
:105A3000EED2324BF6EE007A9FED377A18211E44F3
:105A4000364A60A8D6ED006AE6EE877AFDEEE77A80
:105A500017EE903A21F046F8314B342160A80CCB78
:105A6000FBF7CCFDFBF79CFB0F212E48DDE91BB8B3
:105A700004F0CEFF5BE6194B1B78012B00F0188178
:105A8000164B1B78022B00F07B83144B1B78042BE6
:105A900000F00B83114B1B78072B01F0F9800F4BA3
:105AA0001B78052B00F050870C4B1B78062B00F061
:105AB000C385002C41F05087BAF1000F04DD0123AB
:105AC000194A1370054A1370084B1B78002B41F0DC
:105AD00008870E98FCF7D4F9C6E700BF40170020EE
